:020000040000FA
:0600000002010702225B71
:03002B000226A703
:0300330002268919
:030053000222CEB8
:03006B0002266307
:100083000220C7E5C754F84401F5C77901220000EF
:100093000080FB120086B900030200F1E4792178A5
:1000A30008B800028004F709D8FCE479297802B87B
:1000B30000028004F709D8FCE490028178B3790741
:1000C3008002F0A3D8FCD9FA7A337B099001377800
:1000D300E879048015E493A3AD82AE838A828B838F
:1000E300F0A3AA82AB838D828E83D8E9D9E7758288
:1000F300B27583A774031201197582917583007415
:100103000012011975D00075813F751881751902A8
:10011300759F00020096C09FF59FE473D09F22D085
:1001230083D082C09FE493C0E0740193C0E0740263
:1001330093F59F22FF0000B4000028002800283018
:1001430075A000A000A000A00000080008E001F0D6
:10015300001000100010001000100010005000509C
:1001630000500010001000D0070000000000000F36
:100173000001000500307507001000010081FF0039
:10018300000000FF1C073A072207FF0202020802D1
:100193005000A0000000E803028582010000D18125
:1001A3000281820100008A09025982010000B30220
:1001B3000281820100008B09025782010000C902FB
:1001C3000281820100008C09025182010000CB02EE
:1001D3000281820100008D09029382080000CC0293
:1001E3000281820100008E090267820100008F09EB
:1001F300FF0100FF20028582010000478202818205
:10020300010000F309027F820000000000026B82FC
:100213000300001903EC0CEC0CEC0CEC0CEC0CECF8
:100223000CEC0CEC0CEC0CEC0CEC0CEC0CEC0C6E89
:100233000F860F680F020202020202020202010D80
:1002430000000010010285820100004482028182C5
:10025300010000340A027582010000400702818216
:10026300010000350A0273820100006A8102818263
:10027300010000360A0271820100004F810281826F
:10028300010000370A026F82010000978002818219
:10029300010000380A026D82010000BB80028182E6
:1002A300010000390A026982010000CD80028182C7
:1002B3000100003A0A025382010000A980028182F0
:1002C3000100003B0A025582010000418102818244
:1002D3000100003C0A025F820100003D0A01E803BD
:1002E300053F100AFFFFFF000A63686172616374D0
:1002F300657269737469632031000A6368617261AE
:100303006374657269737469632032000A63686198
:1003130072616374657269737469632033000A637D
:100323006861726163746572697374696320340010
:100333001A636861726163746572697374696320B7
:1003430035000285820100004182028182010000A2
:10035300E70A025D8203000095080279820100002A
:10036300E80A028182010000F90A027B820300008D
:100373009608027982010000FA0A028182010000D4
:100383000B0B0261820300009708027982010000CF
:100393000C0B0281820100001D0B0263820300002B
:1003A30098080279820100001E0B0281820100007D
:1003B3002F0B0265820300009908026B8203000081
:1003C3009A08027982010000300B013075030201A3
:1003D3000600000000000000000000000000000014
:1003E30000000000000000000000000000FFFF0606
:1003F30000800CE803140953696D706C65424C4529
:1004030050657269706865726C6C05125000200348
:10041300020A000201060302FFF05061726B696E6B
:10042300672073797374656D00000000000000CAD3
:10043300130000D013D61304040A43686172616386
:100443007465726973746963203100024368617271
:100453006163746572697374696320320008436869
:100463006172616374657269737469632033001028
:10047300436861726163746572697374696320347C
:1004830000024368617261637465726973746963BE
:100493002035000285820100004A82028182010028
:1004A30000380C028B8203000024090279820100C8
:1004B30000390C0281820100004A0C028D82010086
:1004C3000025090279820100004B0C0281820100A0
:1004D300005C0C028F82020000260902798201006F
:1004E300005D0C0281820100006E0C02918200000B
:1004F300002709026B8203000028090279820100A8
:10050300006F0C028182010000800C027D820400D6
:10051300002E09027982010000810C120122167E4D
:10052300001201222D7E001201225E7E00120122A2
:10053300997E00120122C37E00120122ED7E001279
:100543000122047F001201221B7F00120122327F4D
:10055300001201225B7F001201226E7F0012012232
:10056300847F00120122977F00120122BE7F0012B6
:100573000122BCA702120122C0A802120122F8A87C
:10058300021201221BA90212012226A90212012230
:1005930049A90212012258AA021201222DAB02120A
:1005A3000122A8AB0212012230AC021201226BAC71
:1005B30002120122A2AC0212012230AD0212012268
:1005C30009AE0212012269AE0212012274AE0212B6
:1005D3000122F3AE02120122F6AE02120122F9AE9B
:1005E3000212012288AF021201228BAF02120122F2
:1005F300BBAF02120122E5AF02120122D3B00212F5
:10060300012285B1021201226DE40212012295E456
:1006130002120122C3E402120122FAE402120122AD
:1006230058E502120122A3E502120122EEE50212AD
:1006330001222EE60212012274E602120122A2E630
:10064300021201225FE70212012269E7021201226C
:1006530076E702120122A9E70212012275E80212CB
:10066300012281E80212012299E802120122A3E881
:10067300021201223EA3031201224CA30312012200
:1006830064A3031201227CA303120122BEB9011247
:1006930001226ABA01120122E5BA0112012206BC43
:1006A3000112012242BC01120122EBBC0112012200
:1006B300D2BD0112012236BF011201228DBF0112E8
:1006C30001220EC001120122FEC0011201224BC100
:1006D30001120122D1C10112012203C2011201221E
:1006E30017C40112012259C40112012277C4011255
:1006F3000122FAC401120122CEC50112012296C6BB
:10070300011201221CD202120122EFD20212012293
:1007130098D302120122EBD3021201229BD40212BC
:10072300012227D50212012213D60212012242D638
:100733000212012255D7021201229DD70212012271
:1007430072D802120122AED802120122CAD80212B2
:100753000122FFA503120122008003120122168049
:10076300031201223C800312012258810312012249
:100773006281031201229782031201228F830312E3
:10078300012246DF0212012276E002120122A9E0D1
:1007930002120122F3E002120122BAE20212012242
:1007A300276E00120122916E00120122F06F0012D7
:1007B30001220070001201222D70001201228470A8
:1007C300001201222D710012012234720012012243
:1007D300FE72001201225E7400120122A174001243
:1007E3000122467500120122937500120122B97588
:1007F30000120122C77700120122CC7700120122D6
:10080300D179001201221E7A00120122917A00127C
:100813000122C47A00120122667B001201220F7C9E
:1008230000120122477C001201224A7C001201229D
:10083300927C00120122D27C00120122297D001237
:100843000122F393031201220B9403120122539406
:1008530003120122699403120122B09403120122AC
:10086300C495031201225196031201229C9603128E
:100873000122DC2600120122E8260012012223278E
:1008830000120122682700120122282800120122E7
:10089300AE28001201221329001201223F2900125F
:1008A3000122782900120122B62B001201229A2D6F
:1008B30000120122802F00120122C33000120122F4
:1008C3001133001201222334001201226E3500126B
:1008D30001227E36001201229B3600120122D636F7
:1008E30000120122F836001201225B3700120122A6
:1008F3001C3C00120122B13C00120122023D0012F5
:100903000122293D001201227B3D00120122993D63
:1009130000120122F33D00120122DC3E00120122EB
:10092300524000120122D640001201222AE902128B
:10093300012234E90212012277E90212012292E92B
:100943000212012222EA021201224AEA02120122BF
:1009530087EA02120122BEEA02120122E7EA021228
:1009630001225CEB0212012271EB0212012286EBDF
:1009730002120122B7EB02120122CBEB0212012277
:10098300F0EB021201222AEC0212012256EC0212AF
:1009930001228EEC021201220DED0212012256ED0C
:1009A3000212012280ED02120122ABED021201229A
:1009B30022A103120122E99A02120122179B0212B9
:1009C3000122659C02120122459D02120122649DAF
:1009D30002120122E19D02120122249E021201222F
:1009E3007A9F021201223BA002120122C2A202122A
:1009F300012263A30212012259A40212012256A565
:100A030002120122B0A6021201223BA70212012206
:100A1300C79F0312012230A00312012284A00312F4
:100A23000122ABA003120122DCA003120122D3EDA9
:100A33000212012240EE0212012287EE021201226B
:100A43009FEF021201229BF0021201227EF1021299
:100A53000122F6B10212012238B2021201220AB3B4
:100A630002120122E3B302120122DDB402120122B7
:100A7300BFB50212012228B602120122DEB602120B
:100A8300012252B702120122BEB702120122E7B7B6
:100A93000212012261B802120122FAB802120122E3
:100AA3005FB90212012274B902120122BAB9021209
:100AB3000122D3B90212012238BA021201223BBA2F
:100AC30002120122FA90031201222291031201223F
:100AD3006091031201221E920312012285920312D6
:100AE3000122A19203120122C99203120122F99257
:100AF3000312012208930312012285930312012298
:100B0300AB93031201225CAA011201223AAC011237
:100B130001226CAE01120122A8AE01120122D5AE50
:100B230001120122BFAF011201220AB001120122F8
:100B330055B00112012267B001120122A7B00112C0
:100B43000122DCB0011201222AB10112012259B1A2
:100B5300011201227CB101120122C9B10112012249
:100B63004EB20112012268B401120122A7B601128A
:100B73000122E8B6011201228AB801120122CBB880
:100B8300011201223EB90112012294B9011201227C
:100B9300D48D02120122D28E021201226B9502120F
:100BA30001228C9702120122579902120122BF9A45
:100BB300021201223D4100120122EC4100120122E6
:100BC3003242001201227243001201220845001230
:100BD30001228245001201229D450012012218467E
:100BE30000120122724700120122D2480012012290
:100BF300D84900120122394B00120122524B001234
:100C03000122B04B001201229E4C00120122D14C52
:100C130000120122414D00120122BB4D001201229C
:100C2300054E00120122CF4E00120122A44F0012E2
:100C330001228350001201220E51001201227C5125
:100C430000120122F051001201221B520012012254
:100C5300DA52001201223F54001201225C540012A6
:100C630001227B54001201226C550012012291557E
:100C730000120122BB550012012236560012012236
:100C8300905600120122F95700120122A7580012B0
:100C93000122E858001201220080021201224E8034
:100CA300021201225A800212012238810212012209
:100CB3006981021201229A81021201221A8202120E
:100CC3000122528202120122A48202120122E18233
:100CD30002120122FE84021201222487021201223F
:100CE3000F8902120122F98A02120122FC7F0012EB
:100CF3000122978201120122C78201120122A089D7
:100D030001120122258B01120122229101120122DB
:100D13000A92011201224792011201226A920112E0
:100D230001229B9201120122A49201120122AE928E
:100D3300011201229C9301120122929401120122B9
:100D4300185900120122175D001201221D5D0012C5
:100D530001225864001201227169001201229F8A44
:100D630003120122998B031201220D8C031201221B
:100D73004B8C03120122BF8C03120122388D031204
:100D83000122418D031201224D8D03120122628D36
:100D930003120122A08D03120122B68D0312012238
:100DA300A0F602120122ADF602120122C7F60212C8
:100DB300012206F70212012244F702120122A9F7C7
:100DC30002120122BEF702120122C9F70212012206
:100DD300D6F702120122EDF702120122FBF70212EB
:100DE300012206F80212012212F80212012221F84E
:100DF300021201222CF8021201224FF802120122E0
:100E0300F6F80212012206F90212012220F9021257
:100E130001223DF90212012259F9021201227EF93F
:100E23000212012289F9021201229EF90212012201
:100E3300B2F90212012213FA0212012219FA021262
:100E430001221FFA0212012225FA021201223DFA9F
:100E53000212012270FA0212012220D7011201228A
:100E6300A4D70112012253D801120122B2D90112CF
:100E73000122D3DB01120122BFDC01120122F4DCC7
:100E83000112012216DD01120122C5DD0112012228
:100E9300BDDF01120122E6DF0112012278E0011217
:100EA3000122AAE001120122B7E0011201220EE1A0
:100EB3000112012234E101120122A1E301120122F4
:100EC300A4E401120122FCE401120122AFC80112C1
:100ED3000122B9C901120122A0CA01120122AACA20
:100EE30001120122CCCA01120122D8CA0112012225
:100EF30071CC01120122A0CC01120122BCCD01123E
:100F0300012215CE011201227BCF011201225AD0F8
:100F130001120122B6D00112012223D101120122B2
:100F23005ED1011201229DD10112012256D4011278
:100F3300012270D401120122FCD4011201220AD52C
:100F43000112012263D50112012271D5011201227E
:100F5300E4D50112012248D60112012292D60112D0
:100F630001222EF30112012250F30112012276F520
:100F7300011201228BF801120122A3F901120122AD
:100F830056FA0112012238FB01120122339B03128C
:100F93000122589B03120122CA9B03120122A2CAF7
:100FA30002120122ABCA02120122B4CA02120122A6
:100FB3008BCB021201223CCD0212012272CD02120E
:100FC3000122ACCD02120122E2CD021201221CCE7B
:100FD3000212012250CE021201227CCE0212012201
:100FE300C5CE02120122FFCE0212012248CF021205
:100FF3000122A0CF02120122D5CF0212012230D04A
:10100300021201226AD002120122BBD00212012273
:10101300F1D0021201222BD10212012259D1021264
:1010230001227CD102120122C6A403120122F2A4DE
:10103300031201224DA50312012257A50312012217
:1010430067A503120122E68D031201220B8E031200
:101053000122358E03120122EDA60312012235A7C8
:10106300031201224EA803120122AA9601120122A1
:101073000F9901120122CB9A01120122B89B01128E
:1010830001223F9C01120122BF9C01120122E49C18
:1010930001120122F09F011201226CA00112012210
:1010A3005BA10112012293A101120122D6A1011217
:1010B300012282A301120122D7A30112012224A437
:1010C3000112012296A401120122BDA401120122E0
:1010D300D7A401120122ECA501120122FCA50112E1
:1010E300012223A70112012245A7011201227BA796
:1010F30001120122CCA8011201220BA90112012223
:1011030037AA0112012215A40312012226A40312F5
:10111300012205A80312012244A803120122E3FFBE
:101123000112012271A50312012281A503120122DA
:1011330096A503120122FCA5031201223BA203126E
:101143000122BFA20312012225A303120122D89C6C
:1011530003120122019D031201226E9D031201223B
:10116300C19D031201221A9E031201223187031229
:101173000122468703120122A58803120122138943
:1011830003120122878903120122A189031201227A
:10119300B88903120122CB8903120122E3890312C6
:1011A3000122F88903120122198A031201226A8A91
:1011B3000312012211A903120122559E03120122D7
:1011C3007E9E03120122A79E03120122409F031257
:1011D3000122829F031201225FBA0212012269BA1D
:1011E30002120122A9BA02120122F2BA0212012248
:1011F3002CBB0212012286BB02120122A5BB0212E2
:10120300012247BE0212012250BE02120122A1BED8
:1012130002120122CABE02120122D4BE021201220C
:1012230040BF02120122D4BF0212012233C00212B4
:10123300012261C002120122E1C00212012224C173
:10124300021201225FC10212012271C102120122A4
:1012530090C10212012299C10212012263C2021239
:1012630001225CFE01120122B1FE011201221FFFC5
:10127300011201228FFF01120122C69603120122DD
:10128300F09603120122C59703120122B9980312A3
:10129300012201FF021201223199031201226799EF
:1012A30003120122A09903120122F99A03120122C7
:1012B30083A60312012299A603120122A3A60312F5
:1012C300012253A7031201228FC2021201224CC32F
:1012D3000212012287C302120122AFC302120122AA
:1012E30011C4021201225DC402120122C1C40212FE
:1012F30001223BC5021201223DC602120122F0C7A0
:101303000212012272C802120122D7C8021201225C
:10131300EEC802120122F7C90212012235CA0212D3
:101323000122EDFA0212012206FB02120122AAFB9C
:1013330002120122EAFB0212012203FC0212012221
:1013430036FC0212012283FC02120122B7FC0212B4
:101353000122F9FC0212012240F20212012285F25B
:1013630002120122A2F20212012272F302120122DC
:10137300EBF302120122ACF40212012267F602120D
:1013830001224AE501120122D3E8011201225BEA9C
:1013930001120122B2EA01120122D1EA0112012251
:1013A3004FEB01120122EDEC01120122D1ED0112EA
:1013B3000122BBF1011201228BF2011201223FD95A
:1013C30002120122DEDB0212012205DD02120122DA
:1013D30088DE02120122DEDE021201229983031249
:1013E3000122DE8303120122FB8303120122AC8458
:1013F30003120122FF8403120122DB85031201225F
:10140300F88603120122D07F0012012293A803124F
:101413000122CAA803120122F3A803E06670100890
:10142300A3E066700A08A3E066700408A3E06622DE
:10143300C3E7960809E7960809E7960809E796229D
:10144300C3E09608A3E09608A3E09608A3E09622DB
:10145300C008C3E096F50808A3E096420808A3E095
:1014630096420808A3E09645087001D3D0082208E5
:101473000808EAC0E0EBC0E086F0E7A4FA180986A2
:10148300F0E7A42AFA180986F0E7A42AFA180986CD
:10149300F0E7A42AFA1986F0E7A4FBE5F02AFA1983
:1014A3000886F0E7A42BFBE5F03AFA190886F0E783
:1014B300A42BFBE5F03AFA18180986F0E7A4C5F067
:1014C3002BFBE43AFA1908E7C5F0C6A426F6E5F0C3
:1014D3003BFBE43AFA1886F0E7A4F6E5F00826F6B3
:1014E300E43B08F6E43A08F6D0E0FBD0E0FA22E465
:1014F300CFC0E0E4CEC0E0E4CDC0E0E4CCC0E07512
:10150300F020E626F608E633F608E633F608E63377
:10151300F6181818EC33FCED33FDEE33FEEF33FF12
:10152300C3EC9709ED9709EE9709EF97191919403D
:101533000FFFEC97FC09ED97FD09EE97FE191906CD
:10154300D5F0BFECF709EDF709EEF709EFF7191935
:1015530019D0E0FCD0E0FDD0E0FED0E0FF22601621
:10156300080808C6C313C618C613C618C613C61878
:10157300C613C6D5E0EA22700908080822601618C7
:101583001818C6C333C608C633C608C633C608C64A
:1015930033C6D5E0EA22E627F60809E637F6080956
:1015A300E637F60809E637F622E026F608A3E03622
:1015B300F608A3E036F608A3E036F622E026F008A4
:1015C300A3E036F008A3E036F008A3E036F022C328
:1015D300E697F60809E697F60809E697F60809E696
:1015E30097F622C3E096F008A3E096F008A3E096EE
:1015F300F008A3E096F022E657F60809E657F60846
:1016030009E657F60809E657F622E056F608A3E07E
:1016130056F608A3E056F608A3E056F622E056F085
:1016230008A3E056F008A3E056F008A3E056F02222
:10163300E0F608A3E0F608A3E0F608A3E0F622E646
:10164300F008A3E6F008A3E6F008A3E6F022E0FA28
:10165300A3E0FBA3E0FCA3E0FD22EAF0A3EBF0A3ED
:10166300ECF0A3EDF022E0F8A3E0F9A3E0FAA3E0A5
:10167300FB22E8F0A3E9F0A3EAF0A3EBF022CAC04F
:10168300E0E6F0A308DAFAD0E0FA22CAC0E0E0A369
:10169300C582CCC582C583CDC583F0A3C582CCC525
:1016A30082C583CDC583DAE6D0E0CA22C3E498F8C5
:1016B300E499F91216F08026C3E49AFAE49BFBE955
:1016C30020E7E91216F0E498F8E499F922C3E498C4
:1016D300F8E499F91216F0E498F8E499F9C3E49A56
:1016E300FAE49BFB22EB20E7CFE920E7E0B9001007
:1016F300BB0008E88AF084F8AAF022E4FBC8FA22C7
:10170300EB70227B10C833C8C933C9335007C39A5F
:10171300C3DBF280069A50012ADBEAC833F4C8C956
:1017230033F4C9FA2275F008E4C833C8C933C9339E
:10173300C99AC99B5004C92AC93BD5F0ECFBC833ED
:10174300F4C8E4C9FA22600D08C6A2E713C618C696
:1017530013C6D5E0F322600C08C6C313C618C6131C
:10176300C6D5E0F422700422600D18C6C333C60840
:10177300C633C6D5E0F41822251810AF08F5184073
:101783000C15198008F51840021519D2AF2200C0B4
:10179300D0251810AF08F518500C05198008F51856
:1017A30050020519D2AFD0D0222518F58210AF0808
:1017B300F518400C15198008F51840021519D2AF19
:1017C300851983222518F582E43519F58322251816
:1017D300F8E43519F9222518FAE43519FB222518FE
:1017E300FCE43519FD22E4732518C582C0E0E51930
:1017F30034FFC583C0E0E518C3958224F810AF0811
:101803008583198582188008858319858218D2AF4C
:10181300CEF0A3E520F0A37808E608F0A3DEFAEF04
:10182300F0A3E58124FAF8E608F0A3E608F0A3E6BE
:1018330008F0A30808E608F0A3E608F0A31581154D
:1018430081D0E0FED0E0F8158115811581E8C0E074
:10185300EEC0E0222518C582C0E0E51934FFC58338
:10186300C0E0E518C3958224F910AF088583198574
:1018730082188008858319858218D2AFCEF0A3E53C
:1018830020F0A37808E608F0A3DEFAEFF0A3E581E1
:1018930024FBF8E608F0A3E608F0A30808E608F03E
:1018A300A3E608F0A315811581D0E0FED0E0F8157A
:1018B300811581E8C0E0EEC0E02285198385188296
:1018C300E0A3FEE0A3F5207808E0A3F608DFFAE042
:1018D300A3FFE0A3C0E0E0A3C0E0E0A3C0E0E0A377
:1018E300C0E0E0A3C0E010AF0885821885831980AB
:1018F30008858218858319D2AFD083D08202011F55
:10190300851983851882E0A3FEE0A3F5207808E01B
:10191300A3F608DFFAE0A3FFE0A3C0E0E0A3C0E082
:10192300E0A3C0E0E0A3C0E010AF08858218858380
:10193300198008858218858319D2AFD083D082227B
:10194300C0D02518C582C0E0E51934FFC583C0E0C7
:10195300E518C3958224F310AF088583198582188F
:101963008008858319858218D2AFC8F0A3E9F0A354
:10197300EAF0A3EBF0A37908E709F0A3D8FAECF0B7
:10198300A3EDF0A3EEF0A3EFF0A3D0E0F0A3D0E03B
:10199300F0A3D0E0F0A3E520F0A3E5F0F0A32285C7
:1019A3001983851882E0C0E0A3E0F9A3E0FAA3E07D
:1019B300FBA37808E0F608A3DFFAE0FCA3E0FDA3AD
:1019C300E0FEA3E0FFA3E0C0E0A3E0C0E0A3E0F5F6
:1019D300D0A3E0F520A3E0A3F5F010AF08858319A9
:1019E3008582188008858319858218D2AFD082D06A
:1019F30083D0E0F8D0E0327404800674028002746D
:101A030001C0E0F4041217ACD0E012168122740472
:101A1300800474028000CCC0E0EDC0E0E518C39CF4
:101A2300CCAD1950011D10AF068C188D1980068C92
:101A3300188D19D2AF12168ED0E0FDD0E0FC22D063
:101A430083D082E9C0E0E493A3C386F0C5F095F0A8
:101A5300F908E493A386F0C5F095F0700BE493A323
:101A6300C3994005E9048002A3E475F002A425822A
:101A7300F582E5F03583F583D0E0F9E493A3C0E084
:101A8300E493C0E022D083D082ECC0E0EDC0E0E478
:101A930093A3FCE493A3FDED4C600D121AD4EC2444
:101AA300FFFCED34FFFD80EFE493A3FCE493A3FD7F
:101AB300ED4C600D121B13EC24FFFCED34FFFD8095
:101AC300EFD0E0FDD0E0FCE493A3C0E0E493C0E0FA
:101AD30022C0E0C3E49396087401939618400FE480
:101AE3009366700808740193661870007019A3A3B5
:101AF300C3E49396087401939618A3A3400DD0E012
:101B0300D0E0D0E0021AC4A3A3A3A3A3A3D0E022EE
:101B1300C0E0C0F088F0E49366700808740193662F
:101B2300187000A8F0A3A3700BD0F0D0E0D0E0D0E1
:0B1B3300E0021AC4A3A3D0F0D0E0220F
:101B400074F5121857EAFEEBFFEE2434F8EF340078
:101B5000F988088909EE2435F582EF3400F583E031
:101B6000F8EE2437F582EF3400F583E0F50AEC85D2
:101B70000AF0A4FCAAF0850AF0EDA42AFDE82CF8EE
:101B8000E43DF97A257B001216F0EA850882850982
:101B900083F0F8740758F97401B900028004C33364
:101BA000D9FCFAE8131313541FF8EE28F8EF3400A9
:101BB000F9E8245DF582E93400F583E05A6008EE27
:101BC0002434F582EF802CEE2434F582EF3400F5D6
:101BD00083E0C0E0EE2436F582EF3400F583E0F5D3
:101BE000F0D0E084A8F0EE28F8EF3400F9E82438CB
:101BF000F582E93400F583E0F97F0402190374F5F6
:101C0000121857EAFEEBFFEE2434F582EF3400F5AC
:101C100083E0C0E0EE2435F582EF3400F583D0E0B8
:101C2000F08E828F83A3A3A3A3A3A3A3C082C083A8
:101C30008E828F83A3A3A3A3A3E0F8A3E0F9D083AC
:101C4000D082E0C398F508A3E099F509EE247FF56A
:101C500082EF3400F583E064017069EE2480F58240
:101C6000EF3400F583E0F8A3E0F98E828F83A3A31D
:101C7000A3A3A3A3A3E0FCA3E0FD8E828F83A3A371
:101C8000A3A3A3E0FAA3E0FBC3EA9CEB9D5010C31F
:101C9000EC98ED99402EC3EA98EB995027800EC33B
:101CA000EA98EB994007C3EC98ED9940177CDC7DEE
:101CB00004EEFAEFFB120C4AEE247FF582EF3400BB
:101CC000F583E4F0EE2434F8EF3400F9E8FCE9FDA4
:101CD000EE2435F582EF3400F583E0F8EE2437F595
:101CE00082EF3400F583E0F50AE508850AF0A4F5F3
:101CF00008AAF0850AF0E509A42AF509E82508F8FC
:101D0000E43509F97A257B001216F0EA8C828D837E
:101D1000F0F8740758F97401B900028004C333D98C
:101D2000FCFAE8131313541FF8EE28F8EF3400F907
:101D3000E8245DF582E93400F583E05A6008EE247A
:101D400034F582EF802CEE2434F582EF3400F583F5
:101D5000E0C0E0EE2436F582EF3400F583E0F5F0E4
:101D6000D0E084A8F0EE28F8EF3400F9E82438F544
:101D700082E93400F583E0F9122655021BF9C0828E
:101D8000C083851882851983E0F8A3E0F9C3EA9C33
:101D9000EB9D5010C3EC98ED99401BC3EA98EB996A
:101DA0005014800EC3EA98EB994007C3EC98ED9964
:101DB0004004790180027900D083D08222EAC39C5A
:101DC000FAEB9DFB2274EF1218579003A2E064080F
:101DD0006005E06407702A9061C8E060249003D039
:101DE000E0F4601DE0F875F003A4C8AAF02AF974C5
:101DF000D228FE740339FF8E828F83A3A3A3E070E1
:101E000003021EF5906060E0C0E0EE2468F582EF0A
:101E10003400F583D0E0F0750C45750D05750800AC
:101E2000750900E5D914F50AE5D95403F50E6017D4
:101E30007403650E605CE50A6010EE2467F582EFBE
:101E40003400F583E07003021EDA900540E064017F
:101E5000602AEE2482F582EF3400F583E060047896
:101E60000480027800850A08E508C398FA95E0FB2B
:101E7000120B188A088B09EA45097005120E3C807E
:101E800074EE2482F582EF3400F583E070048A0C4E
:101E90008B0DE50A6012850C82850D83F50BE5D963
:101EA000F0A3150BE50B70F6EE2482F582EF3400FB
:101EB000F583E0604474FC250AF50A780C1219FEDB
:101EC000AC0AA90EEEFAEFFB120CE674021217919F
:101ED000E97026AA08AB09121268793D8E828F83B9
:101EE000A3A3A3A3E0FA7B001209ECEEFAEFFB1226
:101EF0000C62120CF8790080747403650E605685CC
:101F00000A1075110078101219FEAC0CAD0DAA085C
:101F1000AB09120CC27402121791EE2468F582EF1D
:101F20003400F583E064807004747F8001E0F50C78
:101F3000780C121A02E50EF50C780C121A02A90A96
:101F4000AC08AD099003D0E0FA7B001209B074022E
:101F500012179180139003A2E06408600BAC0CADE3
:101F60000DEEFAEFFB120D52120E4879017F0A02B4
:101F7000190374F512185774FC12177BEAFEEBFF75
:101F80008908A2AFE433F509C2AF806AEE2463F892
:101F9000EF3400F97A007B00A2AFE433F50AC2AF58
:101FA00088828983E0FCA3E0FDEC4D603A88828959
:101FB00083E0FAA3E0FB8A828B83E0FCA3E0FD8848
:101FC000828983ECF0A3EDF08A828B83E4F0A3F0A6
:101FD00088828983E0FCA3E0FDEC4D700A88828949
:101FE00083A3A3E4F0A3F0E50AA2E092AF12126883
:101FF0009004E3E004F0EE2463F582EF3400F5830F
:10200000E0F8A3E0F9E849603DEE2463F582EF349F
:1020100000F583E02402FAA3E03400FBEA2402F591
:102020000AEB3400F50B780A1219FE8A828B83E0E2
:10203000FCA3E0F9EEFAEFFB120C86740212179182
:10204000E97003021F8C9004E3E060639004E4E015
:10205000F89004E3E0C398500C7402650870509047
:1020600004E5E0604A8E828F83A3A3A3A3E08518D2
:1020700082851983F0A3E4F09004E3E0F87402127F
:1020800017C7E8F0A3E4F09004E3E0F89004E2E07E
:1020900028F074021217C7AC82AD838518828519A7
:1020A00083AA82AB8379011209BC9004E3E4F0E5D2
:1020B00009A2E092AF7404121791021BF90000000C
:1020C0008521878522C622C0E0C0D0E8C0E0E9C0F3
:1020D000E0EAC0E0EBC0E0ECC0E0EDC0E0EEC0E064
:1020E000C008C009C00AC00BC082C083C0F0A2AF44
:1020F000E433FEC2AF759B00906182E0A2E0501213
:10210000E591A2E0500C7591FE74016521700312F7
:102110001DC5E0A2E55051E591A2E5504B7591DF58
:102120009003A2E064076005E06408702374016511
:1021300021703579019003D0E0FA75F003A4CAA8A4
:10214000F028FB74D22AFA74033BFB121F7280182A
:10215000E0640D70139003C4E004F064287002E49E
:10216000F07A00E0F9120E4E906182E0A2E64003A0
:1021700002220EE591A2E6400302220E7591BF9065
:1021800003A2E064057008120D7C120D8880031212
:102190000D82752100120DDCE99003A3F079001285
:1021A0000DD0120BC07A017B009003A1E0F912124E
:1021B00038907803E064427055900544E014F07064
:1021C0004DC2AF1221C600782AD0E0F618D0E0F652
:1021D000E59F540770057509FF800375097FC4C02A
:1021E000E07829E6F50808E65509F509740B780842
:1021F000121759D0E02508F8906270E0A2E740F885
:10220000E8C333906272F0906270E0D2E0F09061C7
:1022100081E0A2E35009E5E9A2E3500375E9F7A3E1
:10222000E0A2E75009E591A2E7500375917FEEA285
:10223000E092AFD0F0D083D082D00BD00AD009D0BA
:1022400008D0E0FED0E0FDD0E0FCD0E0FBD0E0FA2A
:10225000D0E0F9D0E0F8D0D0D0E032C0E0C0D0C0BB
:1022600082C083906183E0A2E05009E5BFA2E05004
:102270000375BFFEE0A2E15009E5BFA2E15003757E
:10228000BFFDE0A2E25009E5BFA2E2500375BFFB2B
:10229000E0A2E35009E5BFA2E3500375BFF7E0A257
:1022A000E45009E5BFA2E4500375BFEFE0A2E5509A
:1022B00009E5BFA2E5500375BFDFE0A2E65009E5DE
:1022C000BFA2E6500375BFBFD083D0828088C0E034
:1022D000C0D0E8C0E0E9C0E0EAC0E0EBC0E0ECC09C
:1022E000E0EDC0E0C0F0E5A7A2E6500FE5A1A2E650
:1022F000500953A7BF75A1BF122333E5A7A2E5502C
:102300000CE5A1A2E5500653A7DF75A1DFE5A7A262
:10231000E15009E5A1A2E1500375A1FDE5A7A2E204
:10232000500CE5A1A2E2500653A7FB75A1FBD0F02B
:1023300002224474F81218577521019003A2E06438
:10234000067015120D168A828B83A3A3A3A3A3A3E1
:10235000E0FAA3E0FB120D6AA2AFE433FED2AF9025
:1023600003A8E0640170187A207B009003A1E0F9D3
:102370001213467A207B009003A1E0F912123E90DE
:102380006182E0D2E6F0900541E0602185C62280BE
:10239000169003A7E064017008E5C654F84405F5FB
:1023A000C653BEFC1220C07401652160E4EEA2E0B9
:1023B00092AF7F01021903008E238F248582288526
:1023C0008327851882851983E0CEA3E0CF852882F4
:1023D000852783EBC9EAC8EDCBECCA75F010C3E8DA
:1023E00033C8E933C9EA33CAEB33CBC3EA9EF526D7
:1023F000EB9FF525B35004AB25AA26EC33CCED3387
:10240000CDD5F0DAAE23AF242274ED1218578A0826
:102410008B098C0A8D0B74131217C7780C121633A4
:102420007808790C1214337510017511C8751200F3
:1024300075130050127808790C1215D278107908AB
:1024400012143350168010780C79081215D27810B7
:10245000790C12143340047901800279007F0C0258
:10246000190374ED1218578A088B098C0A8D0B74A6
:10247000131217C7780C121633780C79081214331C
:1024800040117808790C1215D2AA08AB09AC0AAD34
:102490000B802275100075110075120075130178FC
:1024A00010790C1215D278107908121599AA10AB70
:1024B00011AC12AD1380A68A828B837508FF750953
:1024C000FF750AFF750B0078081216207F040219A9
:1024D0000374F51218578C828D8378081216338A8C
:1024E000828B8378081215E6EA2404F8EB3400F9AD
:1024F0008C828D83A3A3A3A3E0FCA3E0FD88828943
:1025000083C3E09CF0A3E09DF088828983C3E094BC
:1025100020A3E0944E40268A828B837508FF7509BC
:10252000FF750AFF750BFF78081215BF8A828B832F
:10253000A3A3A3A3E02420F0A3E0344EF00224B729
:1025400074F5121857E9FE9004F7E0FAA3E0FBEEE9
:10255000C333F8E433F9740228F582748139F583C2
:10256000E02AF508A3E03BF50978081219FE7A4045
:102570007B427C0F7D001223B874021217918A08E7
:102580008B098C0A8D0B74107808121561AA08ABA0
:10259000097F0402190374F11218578A0C8B0D8CF1
:1025A0000E8D0F740F1217C7E0FAA3E0FB7411121F
:1025B00017C7E0F508A3E0F50978081219FEEA2428
:1025C00001F508EB3400F509E4F50AF50B780C7910
:1025D00008121472750871750902780C79081214C2
:1025E00072AA0CAB0DAC0EAD0F1223B87402121709
:1025F000918B09EA450960047A0180027A00EC2A8D
:10260000FCED3400FD74131217C7E0F8A3E0F9E8FD
:10261000FEE9FFECF8EDF97A717B021216F08808FA
:1026200089098E828F837808121642ECF8EDF97AC8
:10263000717B021216F08A088B097405780812174C
:10264000688E828F83A3A3A3A3E508F0A3E509F016
:102650007F08021903C082C083E9906000F0D08334
:10266000D08222C0E074F2121943A2AFE433FED24A
:10267000AFE589A2E15003121166758900C2C5EE6B
:10268000A2E092AF7F010219A2C0E074F2121943D6
:10269000A2AFE433FED2AFE58BA2E0500312116685
:1026A000758B00C2E880D8C0E0C0D0E8C0E0E9C0C7
:1026B000E0A9A8D2AFC2C7E9A2E7E433F8E9A2E7EC
:1026C00092AFD0E0F9D0E0F8D0D0D0E032C2AF0283
:0326D000000022E5
:1026D400FFFFFFFFFFFFFFFFC082C083E99009F205
:1026E400F002296B74F71217EBE99002E1F07C1900
:1026F4007D037AFF7BFF1209029002E274FFF0A3CC
:10270400F0A3E4F0A3F0790512088A9002E1E0F95D
:102714001207AC7A207B09120ACA7F010218BD7421
:10272400F41217EB8A088B09EB548060309002E1B5
:10273400E0F91212208A0A8B0BAE0AAF0BEE4F603F
:10274400138E828F83E064B070031208A2EEFAEF56
:10275400FB12120EAA08E5096480FB80047A007B50
:102764000002293A74F21217EB74FC12177BEAFE8A
:10277400EBFFEE4F603874021217C7EEF0A3EF12AE
:102784002B9FECF0A3ED122B9FAA82AB831207A61A
:10279400E9F508707374121217C7123753E50A4526
:1027A4000B60658E828F83122816EE4F70057508B4
:1027B4000280557A067B001212A48A0C8B0DA80C99
:1027C400A90DE8497005750813803D88828983E462
:1027D400122820A3A3EEF0A3EF123BECE50AF0A32A
:1027E400E50BF09002E71228A89002E76017E0FCDE
:1027F400A3E08003EAFCEBFD8C828D831228A87091
:10280400F38C828D83123678A9087404121791020E
:102814003DEEA3A3A3A3E0FEA3E0FF22F0A3F08870
:102824008289832274F21217EB890AE975F017A4DE
:10283400FEAFF09002E6E4F09002E41228A8600AE9
:102844001212AA9002E4E4F0A3F0EEFAEFFB1212E3
:10285400A48A088B09EA4509602FEEFCEFFD790094
:102864001211F69002E4E508F0A3E509F07B00807C
:1028740008122892E4F0A3F00BEBC3950A40F2E5AA
:102884000A9002E6F0790080027913023DEEEB75BE
:10289400F017A4F8A9F09002E4E028FAA3E0398A3A
:1028A40082F5832212340EEA4B2274F41217EB756C
:1028B4000800750900740C1217C7123BC0FEE9FF2B
:1028C400800CE5082401F508E5093400F509C3E5A1
:1028D400089CE5099D503285080A85090B74037824
:1028E4000A121768EA250AF8EB350BF988828983FE
:1028F400A3A3A3A3A3A3123753EE650A7003EF6542
:102904000B70BFE8FAE9FB80047A007B008027742F
:10291400F41217EB7900EAA2E0501B7508FA750966
:102924008178081219FE7C047D007AF47B09120870
:102934008474021217917F040218BDC082C0839070
:1029440002E7122972601C88828983A3A3E06A705B
:1029540003A3E06B8882898370E8A3A3A3A3123442
:102964000A80047A007B00D083D08202011F123EC9
:10297400C1E8492274EE1217EB74FC12177BEAFECD
:10298400EBFF851882851983E4F0A3F0EE2402128C
:10299400365CEE2405122B8DEE2404F50EEF122F77
:1029A40072E024FE603924FC604624FE605224FE5A
:1029B400605E24FE7003022A9224FE7003022B0A36
:1029C40024FE7003022B1924FE7003022B2824FC1E
:1029D4007003022B3724FE7003022B46022B8390D4
:1029E40003007417F0A3E4122BA7120524022B830F
:1029F400851882851983AC82AD831208A8022B53F3
:102A0400851882851983AC82AD831208AE022B53DC
:102A1400850C08850D0974021217C7AC82AD838535
:102A2400088285098312340A1207CA8A0C8B0DACFA
:102A34000CAD0DEC4D6042E4F50CF50D780C12195B
:102A4400FE750C00750D03780C1219FE750C0175DA
:102A54000D03780C1219FE74081217C7121A15798F
:102A6400161234041208EA7408121791E9F50C706E
:102A74000B12340012053C800F750C018508828509
:102A84000983122B95123678850C08022B56740292
:102A94001217C7AC82AD83850C82850D8312340A6C
:102AA4001207CA8A108B11AC10AD11EC4D6043852E
:102AB4000C82850D83A3A3121A15751000751103DA
:102AC40078101219FE75100175110378101219FE91
:102AD40074081217C7121A1579161234041208EA68
:102AE4007408121791E9F509700B123400120542AB
:102AF400800F750901850C82850D83122B95123682
:102B040078850908804C851882851983AC82AD8349
:102B14001208B4803A851882851983AC82AD831279
:102B240008BA802B851882851983AC82AD8312087C
:102B3400C0801C851882851983AC82AD831208C6B7
:102B4400800D851882851983AC82AD831208CCE987
:102B5400F508E50860298E828F83A3E06414601F62
:102B6400850E82850F83E0900300122B9F123EBDD9
:102B7400900301123678E508A3122BA712051EEE66
:102B8400FAEFFB120848023564F50CEF3400F50D3A
:102B940022123EC185188285198322F08518828508
:102BA400198322F07C007D03850A82850B8312340D
:102BB4000E2274EE1217EB74FC12177B8A0A8B0B2D
:102BC4008C0E8D0FEA2405F508EB3400F5097C150D
:102BD4007D0079007A007B031211F6E5082402F5E2
:102BE4000CE509122B90851882851983858210853E
:102BF400831178101219FE850882850983A3A3A383
:102C0400A31230BA1219FEE5082405F510E50934BB
:102C140000F51178101219FE850C82850D8312348B
:102C2400141207C474061217918A108B11AE10AFD8
:102C340011E50A2402F50AE50B12365FEE4F700324
:102C4400022D7C801774021217C712340A888289F5
:102C540083EAF0A3EBF0900300E004F0900300E0BB
:102C6400C394054003022D7CE4F510F5117810128D
:102C740019FE7510E975110278101219FE7510EA23
:102C840075110278101219FE74061217C7121A155C
:102C94007910EEFCEFFD1234041208EA74081217DE
:102CA40091E9705E850882850983A3A3A3A3A3A3E6
:102CB400A3E0F89002E9E06870481230BA1219FEF5
:102CC4007CEA7D02E5082408FAE5093400FB1211C8
:102CD400F07402121791E960298E828F83A3A3A353
:102CE400A312340A900300E0F5107402781012174E
:102CF4006874012510F58274033511F583EAF0A395
:102D0400EBF074021217C7858210858311781012B4
:102D140019FE74021217C7121A15850C82850D83C9
:102D2400123ED21207D074041217918A108B11AE7E
:102D340010AF11900300E0F51075110074027810C3
:102D440012176874002510F874033511F988828904
:102D540083A31228A87003022C40E82403F8E93462
:102D640000F9EE4F6003022C498882898374FFF0D6
:102D7400A3F0900300E004F0900300E0600A123432
:102D8400001205307900800B85088285098312368C
:102D94006F790A02356474EA1217EB74FE12177B1A
:102DA4008C128D13EA2405F50CEB12403C12281A00
:102DB400750800750900EA2402F510EB3400F511DA
:102DC40085188285198385820A85830B780A1219EE
:102DD400FE850C82850D83A3A3A3A3122F7C121955
:102DE400FEE50C2405F50AE50D12365F780A121982
:102DF400FE850C82850D83123ED01207C474061220
:102E040017918A0A8B0BEA450B7003022F2DEA24D3
:102E140004F50EEB122F7212281A8A828B83A3A355
:102E2400A3E0F985108285118312340A1207B2E9EE
:102E3400F5096003022F2DE4F514F5157814121921
:102E4400FE7514E975150278141219FE7514EA75E5
:102E5400150278141219FE74061217C7121A15797E
:102E640013AC0AAD0B85108285118312340A120843
:102E7400EA7408121791E9F5096003022F2D9002F4
:102E8400E9E0F8E5087009E02402900301F08017F6
:102E9400900301E0FCE82402FAE43400FBEA6C70DD
:102EA40001EB6003022F31850882AA821230B194AB
:102EB400141230A95073850E82850F83E0C0E0742C
:102EC400022A122F69D0E0F00508850E82850F834F
:102ED400A3E0C0E085080A7402250A122F69D0E035
:102EE400F005089002E9122F7C1219FE7CEA7D029B
:102EF40085080A7402250AFA74033400FB1211DEF1
:102F040074021217919002E9E02508F50874FF6E27
:102F1400700374FF6F6012EE24010EEF3400FFE5BE
:102F240008C394145003022DC4E50860131232F54B
:102F340085108285118312340A12053679008014B3
:102F4400E509700375090A851282851383EEF0A3DF
:102F5400EFF0A90974021217917F0E0218BD8508BB
:102F64000C7402250CF58274033400F583223400BA
:102F7400F50F850E82F58322123BFF2274EE1217A1
:102F8400EB74FE12177B8C0E8D0FEA2405F50CEB07
:102F9400122B90750B00900300E4F0F50AEA24026A
:102FA400F508EB3400F5098049900300E0FA90023B
:102FB400E9E0F81230B194171230A9400D900300E3
:102FC400E0F87416C3989002E9F01230BA1219FEB0
:102FD4007CEA7D0274012AFA74033400FB1211DEC8
:102FE40074021217919002E9E0F8900300E028F0CF
:102FF400050AE50C2416F582E50D122F6DE0F8E5BF
:103004000AC3984003023092900300E0C394165020
:103014007DE50AC333F8E433F9E50C28FEE50D3900
:10302400FF851882851983AC82AD838E828F8312CB
:10303400340A1207CA8A108B11AC10AD11EC4D7012
:1030440005750B018043E4F510F51178101219FE93
:103054007510E975110278101219FE7510EA7511D0
:103064000278101219FE74061217C7121A1579166F
:1030740085088285098312340A1208EA7408121733
:1030840091E9F50B7003022FAD12366B80107C00B2
:103094007D0385088285098312340A120548A90B29
:1030A4007402023566E99400C365D03322EA28F835
:1030B400E43400F9E822E0F5107511007810227468
:1030C400EA1217EB74FC12177B8A0C8B0D8C128D91
:1030D40013EA2405F50AEB12365F7508007509003A
:1030E400E50A2402F510E50B3400F51174021217F9
:1030F400C785820E85830F780E1219FE850A828594
:103104000B83A3A3A3A3123BAB1219FEE50A240568
:10311400F50EE50B3400F50F780E1219FE851082BA
:103124008511831236651234041207C4740612170B
:10313400918A0E8B0FAE0EAF0FE50C2402F50EE54F
:103144000D3400F50F80408882898374FFF00508F0
:10315400122F6274FFF005089002E9E0F50C750D7A
:1031640000780C1219FE7CEA7D0285080C74022595
:103174000CFA74033400FB1211DE740212179190DE
:1031840002E9E02508F508EE4F60718E828F83A373
:10319400A3A3E0F9850E82850F8312340A1207B2C5
:1031A400E9F509EE2404122B8DE97044E4F514F5D5
:1031B4001578141219FE7514E9751502781412198C
:1031C400FE7514EA75150278141219FE74081217A4
:1031D400C7121A157911EEFCEFFD850E82850F8357
:1031E40012340A1208EA7408121791E9F5096027E3
:1031F400850C82850D831232EB123678E508700354
:103204000232D11232F5850E82850F8312340A12EE
:10321400054E79000232E6850882AA82EA9002E924
:103224007009E02404900301F08022E0F890030187
:10323400E0F514E82404FCE43400FDEC65147001AA
:10324400ED70C01230B194121230A950B6850C82C0
:10325400850D83E0C0E074022A122F69D0E0F005E6
:1032640008850C82850D83A3E0C0E0122F62D0E0B4
:1032740012330785820C85830D780C1219FE7404B1
:103284001217C7121A15851082851183123ED212A5
:1032940007D074041217918A0C8B0DAE0CAF0D85F8
:1032A400080C7402250CF874033400F9EE4F700313
:1032B40002314B851882851983E088828983123311
:1032C40007A3E0C0E0122F62D0E0023159E5097093
:1032D4000375090A850A82850B831232EB1236784C
:1032E400A9097404022F5A123EC1851282851383E0
:1032F40022900301E0F5F0E50884900300F07C00DF
:103304007D0322F005088518828519832274EC1246
:1033140017EB74FE12177B8A088B098C0E8D0FEA4B
:103324002405FEEB3400FF851882851983AC82AD39
:10333400838E828F8312340A1207CA8A0A8B0BEE99
:103344002418122B8DEA450B70030233DB12354D22
:10335400503285188285198312340A1208DE8A10C5
:103364008B11EA4511606B7912AC0AAD0B850882AA
:1033740085098312340A8510828511831217E9E9BD
:10338400F50A7058E4F50AF50B780A1219FE8E82D4
:103394008F83A3A3E0F50A780A1219FEEE24031220
:1033A400365C780A1219FE8E828F83123414120846
:1033B400F07406121791E9F50A7021850C82850DC7
:1033C40083E0701F85088285098312340A1205542C
:1033D4008011750A0E8009750A018004E50A6003EC
:1033E40012366B850C82850D83E0600479008002BF
:1033F400A90A74021217917F0C0218BD7C007D0388
:10340400850A82850B8312340E22E0FAA3E0FB22A4
:10341400E0FCA3E0FD85088285098312340E227442
:10342400EE1217EB74FE12177B8A088B098C0C8D35
:103434000DEA2405FEEB3400FF750E008518828525
:103444001983AC82AD838E828F8312340A1207CA29
:103454008A0A8B0BEA450B700302353912354D503D
:103464003585188285198312340A1208DE8A0E8B78
:103474000FEA450F605E7912AC0AAD0B85088285B0
:10348400098312340A850E82850F831217E9E9F540
:103494000E600302353C850882850983123753AADE
:1034A4000AFB1208D28A108B11A810A911E84970DE
:1034B4001E7AFF7BFF1208D28A108B11A810A91163
:1034C400E849606C88828983E50AF0A3E50BF0750E
:1034D4000A008007750E0E805F050A9002E6E0FA86
:1034E400E50AC39A504AE50A75F017A4FAABF088C6
:1034F400828983A3A3E02AFAA3E03BFB8A828B831D
:10350400123665EC4D70D2750A17750B00780A12E5
:1035140019FEEEFCEFFD1211DE7402121791EEFC9F
:10352400EFFD85088285098312340A12055A801436
:10353400750E098003750E01123EB9850C82850D46
:1035440083123678A90E0230A4E5082402F508E5B2
:10355400093400F5098A828B83A3A3A3E0A2E522A0
:1035640074041217917F0A0218BD74EC1217EB8CC5
:10357400108D11EA2405F50CEB122B90750F00EA5F
:103584002402F50AEB12365F850A82F58312340AA7
:103594001208D28A088B09EA45097003023651756C
:1035A4000E008071850C82850D83E06401704F8E5E
:1035B400828F83A3A3121A158E828F83A3A3A3A33E
:1035C400E0F51275130078121219FEEE2405F512B7
:1035D400EF3400F51378121219FE1234041208F0B5
:1035E4007406121791E9F50F6014850C82850D831A
:1035F400E4F0123EB98510828511831236787C1767
:103604007D007900EEFAEFFB1211F68E828F83E4CF
:10361400F0A3F0050E9002E6E0F8E50EC398501E04
:10362400E50E75F017A4F8A9F0850882850983A32F
:10363400A3124046123665EC4D60030235A8850896
:103644008285098374FFF0A3F0E50F700612340439
:10365400120560A90F0233FBF50AEF3400F50B22C3
:10366400A3E0FCA3E0FD228E828F83123EC1850E6F
:1036740082850F83E8F0A3E9F022C082C083900220
:10368400E2E06A7003A3E06B70067AE27B028004D6
:103694007A007B0002296BC082C08378008C828D03
:1036A40083E06A7003A3E06B7010E875F003A4F87C
:1036B400A9F0EC28FAED39FB8015088C828D83A3E0
:1036C400A3A3E06A7003A3E06B60DF7A007B0002CF
:1036D400296B74F61217EB12089C8A828B83E5829D
:1036E400458370067A007B008007A3A3A3A312344A
:1036F4000A023D6A74F21217EBE9FE740E1217C740
:1037040012375374101217C7123BCB8C828D83E08F
:1037140064027036A3123EC7F50CA3E0F9A80C743A
:10372400026870037429697021750C02750D0078A4
:103734000C1219FE78081219FE780A1219FEEEF915
:10374400120914740612179180027901023DEEE009
:10375400F50AA3E0F50B2274E81217EB74FB1217B9
:103764007BE9851882851983F08A168B17ECFEEDA8
:10377400FF751000741D1217C7123EBD741D121779
:10378400C71236788E828F83A3A3A3E0A2E4502DC0
:10379400741D1217C712340A1208DE8A828B83E55D
:1037A4008245837003023B9C790AEEFCEFFDAA1666
:1037B400AB171217E9E9F5106003023B9F741F125F
:1037C40017C7123BCB74211217C712375374231235
:1037D40017C7E0F50EA3E0F50F8E828F83E0640235
:1037E4006003023B4AA3123EBD850882850983A378
:1037F400858212858313EE2406122B8D8882898399
:10380400E0FAA3E0F9EA2400F514E439F515781494
:10381400121A880100002801283F380700022804F2
:10382400390328713800293B3A0129663A022907ED
:103834003A03293B3A0429E53A4A3BE50E450F6031
:1038440003023B45850C82850D83123BC0FAE9FBDC
:103854008A828B83E0850A82850B83123BF61219D8
:10386400FE8A828B83A3E0FCA3E0023ACFE50E45F7
:103874000F6003023B45850A82850B837401F012B5
:103884003BD3850882850983F07C007D008E828F7E
:1038940083A3A3A3A3E02401FAA3E03400FB12074B
:1038A400CAEA4B60418A828B83E02402F8850A824B
:1038B400850B83E028F0EA2404F8EB3400F98882CD
:1038C4008983E0851282851383123C08123BF61229
:1038D40019FE8A828B83123664E5082403FAE5090B
:1038E4003400FB023AD4850A82850B83E02404F079
:1038F4007C047D007900AA12AB131211F6023B9FDF
:10390400E50E450F6003023B45123BD3FEA3E0FFE7
:10391400850A82850B837404F0EE85088285098309
:10392400F0EF851282851383F074031217C7AC82FB
:10393400AD83EEFAEFFB1207CA8A0C8B0DEA450D34
:1039440070030239E88A828B83A3A31228167401B8
:103954001217C785820E85830F780E1219FE74051F
:103964001217C7121A157CFF7DFF1207D0740412B8
:1039740017918B0FEA450F7033850C82850D8312E6
:103984003BAB1219FE850C82850D83A3121A157C9C
:10399400027D007A837B821205FC7404121791E97C
:1039A400700A74011217C774FFF0A3F08E828F831C
:1039B400E064027039750C02750D00780C1219FE62
:1039C4008E828F83123664E5082404FAE5093400F4
:1039D400FB1211DE7402121791850A82850B83E0B3
:1039E4002402800974011217C7EEF0A3EFF07401EA
:1039F4001217C7123BBCF074011217C7A3123BB4D1
:103A0400023B3FE50E450F6003023B45850C828572
:103A14000D83123665AA16AB17120908850A82852A
:103A24000B837402F0EA850882850983F08512828B
:103A3400851383EB023B42E50E450F6003023B45D1
:103A4400123BD3F8A3E0F9850A82850B837402F054
:103A5400E8850882850983F0E9851282851383024B
:103A64003B42850C82850D8312340A1211D8EAFC7C
:103A74008C82A882C3950EE4950F405FE8650E70B2
:103A840002E50F70047C008022851882851983E08A
:103A9400FAE50E2AFAE50F3400FBC3EA98EB94002A
:103AA4005003E08005E50ECCC39CFCEC850A8285BE
:103AB4000B83F08C0A750B00780A1219FE850C82B0
:103AC400850D83E0250EFCA3E0350FFDAA08AB09A4
:103AD4001211DE7402121791023B9F751007023B0C
:103AE4009FE50E450F705A850C82850D83123EBDED
:103AF400850A82850B837407122822123BB412288C
:103B040022A3E0851282851383F0E82402FAE934C3
:103B140000FB8A828B83123BB4123BE3123BBCA3AF
:103B2400123BEC123BC5F0E82405F8E93400F988AF
:103B3400828983123BC5A3123C08A3A3A3A3F080EC
:103B44005A75100B8055741D1217C712340A1208C7
:103B54009C8A828B83E5824583603D123EBD880C3E
:103B6400890DE8450D6031780E1219FE780A121994
:103B7400FE78081219FE74061217C7E0F9EEFCEF7E
:103B8400FDAA16AB17850C82850D831217E97406FE
:103B9400121791E9F510800375100EA9107405121F
:103BA40017917F100218BDE0F50E750F00780E22F4
:103BB400E085088285098322123C1222123EC1E864
:103BC40022123C12A3A322E0F508A3E0F509228502
:103BD4000C82850D83E0F8A3E0F5838882E022A3BC
:103BE400A3F08A828B83A322F088828983A3A3A370
:103BF400A322F08A828B83123BFF22E0F50A750B25
:103C040000780A22F088828983A3123C1222E0857C
:103C14000882850983A3A32274EE1217EB74FE12A3
:103C2400177B8A0A8B0BECFAEDFB74141217C7E0AE
:103C3400F510A3E0F51174161217C7E0FE741812FC
:103C440017C7E0F50EA3E0F50F851882851983AC3C
:103C540082AD831207CA8A0C8B0DEA450D60498533
:103C6400188285198312340A12089C8A828B83E590
:103C7400824583602FA3A3123BCBE508450960244A
:103C8400780E1219FE78101219FEEEF9AC0CAD0D77
:103C9400AA0AAB0B8508828509831217E9740412FA
:103CA40017918006790E800279010230A474F6120D
:103CB40017EB74FE12177B740C1217C7123BC085E6
:103CC4001882851983F074011217C7E9F0E4F50826
:103CD400F50978081219FE75080278081219FE749D
:103CE400041217C785820885830978081219FE1201
:103CF40008F074061217917402121791806874F711
:103D04001217EBEAFEEBFF89087C197D0312090800
:103D1400EA5402600BA908EEFAEFFB1207BE800218
:103D2400790102271E74F61217EB74FF6A7003748C
:103D3400FF6B70168C828D83123D6FE4F08C828D44
:103D440083A3A3A3123D6FA380181208D88A088BFB
:103D540009A808A909E849600D8882898374FF12BB
:103D64002820A3A3E4F07F020218BD74FFF0A3F09F
:103D74008C828D83A3A32274F61217EB1208D88ABF
:103D8400828B83E58245836006A3A3E0FA80027AEE
:103D9400007B0080D174F21217EB8A088B09ECFEC9
:103DA400EDFF740E1217C7E0F50A1208D88A0C8BBF
:103DB4000DA80CA90DE8497026EEFCEFFD7AFF7BF7
:103DC400FF1208D88A0C8B0DA80CA90DE8497004C1
:103DD4007911801688828983E508F0A3E509F088C3
:103DE400828983A3A3E50AF079007F060218BD74D3
:103DF400EE1217EBEAFEEBFF8C088D09890C7414A4
:103E04001217C7123EBD74161217C712340A750D65
:103E140000E8496003023EB17402650C6003023E8F
:103E2400AC74121217C7123EC7FCA3E0F9EC2400CD
:103E3400F50EE439F50FEAF4F8EBF4F9EC58F8E58B
:103E44000F59F9E849705CE5082406F8ED3400F9E7
:103E5400880A890B8882F583123ED21209088A10D7
:103E64008B11E50E65107004E50F65116042780E44
:103E74001219FE850A82850B83123ED212090E7432
:103E840002121791E9F50D7027780E1219FE8508B4
:103E940082850983A3A3123ED01209267402121745
:103EA40091800D750D808008750D0D8003750D0BC7
:103EB400A90D0235698E828F83123EC122E0F8A3D8
:103EC400E0F922123EC188828983E022A3A3E0FCA8
:103ED400A3E0FDEEFAEFFB2274E81217EB74E7128D
:103EE400177B851882851983EAF0A3EBF08C168D75
:103EF40017890E75080075090074311217C7E0F5AB
:103F040012A3E0F51374331217C7E0F514A3E0F518
:103F14001574351217C7E0F50FE50975F003A4F819
:103F2400A9F0851882851983124046E0F47003A332
:103F3400E0F47003024029EE2402F50CEF12403C39
:103F4400E0700302402985160A85170B780A1219B6
:103F5400FEAC14AD15AA12AB13120890740212171A
:103F6400918A0A8B0BEA450B7003024029E4F51091
:103F7400F51178101219FE74061217C78582108580
:103F8400831178101219FE74091217C785821085DF
:103F9400831178101219FE851282851383A3A3A3BB
:103FA400A3121A157914AC0AAD0B8E828F831234C6
:103FB4000A1208EA7408121791E97069850A828561
:103FC4000B83A3A3A3A3123EBD74021217C7123618
:103FD40078850C82850D83E0A2E05018A90E740246
:103FE4001217C7AC82AD838E828F8312340A1207F4
:103FF400E2E94208850C82850D83E0A2E15026E5C2
:104004000FF50A780A121A02A90E74031217C7AC24
:1040140082AD838E828F8312340A1207DC740112FC
:104024001791E942080509E509C394025003023FC8
:104034001DA9087419023BA33400F50D850C82F503
:104044008322E028FEA3E039FF8E828F832274F25C
:104054001217EBEAFEEBFF890B7401650B600E741B
:1040640002650B706A7901120AE8E97062EEFAEFF0
:10407400FB1208D28A088B09EA45096047750A00D1
:10408400800B7C177D0079001211F6050A9002E678
:10409400E0F8E50AC3985021E50A75F017A4F8A9D9
:1040A400F0850882850983A3A3E028FAA3E039FBFD
:1040B4008A828B8312297270C98508828509837468
:1040C400FFF0A3F07C197D03EEFAEFFB1209020264
:1040D4003DEE74F21217EB8A088B09ECFEEDFF74C7
:1040E4000E1217C71237539009F2E0F4603D7A09B3
:1040F4007B00121208EA4B60328A828B8374B1F01F
:10410400A3E4123BE5A3123BE3A3E508F0A3E5090E
:10411400124132EEF0A3EF124132A3A3E50AF0A359
:10412400E50BF09009F2E0F9121214023DEEF08A68
:10413400828B83A3A3A3A3A322C082C08390619094
:104144007404F0A37448F0A37402F0906180744086
:10415400F09061BC7403F09061877419F09062650B
:10416400741BF0906249E0C3941390619C400A74FC
:1041740009F090606674018007740DF0906066E445
:10418400F090619A7433F0A37455F09061A0743A7E
:10419400F090053FE064017009C2919003A6746732
:1041A40080059003A67461F09026DAE4939061860A
:1041B400F09026D4E493F46027E493540FF89061CC
:1041C40085E0686012E5C654804449F5C6E59E540E
:1041D4007F644970F8E8F053C680E59E547F70FA16
:1041E4007905120E3002436BC082C083E5A8F853F0
:1041F400A87E906181E4F0A3F0A3F0C2BA539AFEC2
:10420400C289759B00C2C275E90075910075BF0033
:1042140075A91175B905906181F0A374C0F0A3E488
:10422400F0D2BA439A0174805842A802436BC08208
:10423400C08374F812177B9003A4E0F8A3E0F9E8B4
:104244004970030243609003A4E05440602379085A
:10425400851882851983AA82AB83120CA4851882DF
:10426400851983AA82AB831209989003A4E054BFF2
:10427400F0E054806010790C7A657B05120CA490F0
:1042840003A4E0547FF0E0A2E0503190619A7433CB
:10429400F0A37455F09061A0743AF090053FE06487
:1042A400017009C2919003A6746780059003A674F7
:1042B40061F012099E9003A4E054FEF0E054026001
:1042C4003190619A743FF0A3745AF09061A0747FA6
:1042D400F090053FE064017009D2919003A67471D7
:1042E40080059003A6746AF012099E9003A4E0541A
:1042F400FDF0E0540460139026D8E493906186F0B6
:104304001209A49003A4E054FBF0E0540860139055
:1043140026D9E493906186F01209A49003A4E05492
:10432400F7F0E0541060139026DAE493906186F07D
:104334001209A49003A4E054EFF0E05420600A12A0
:1043440009A49003A4E054DFF0A3E05401600D122B
:104354000BCC1209AA9003A5E054FEF074081217BE
:104364009102436BF0A3F0D083D08202011F74EC5E
:104374001217EB74F412177B851882851983AC82AB
:10438400AD83758382758219740412168E9026D8B3
:1043940093F460030244FE907808E0C3940250034F
:1043A4000244DE74041217C7AC82AD837583817531
:1043B40082C9740812168E85188285198385821223
:1043C40085831374041217C7AC82AD83750EFF7511
:1043D4000FFF7FFF7E00750C48750D7880157408FB
:1043E4006E700302447274096E7003024472740A9C
:1043F4006E607B850C82850D8378081216338C825F
:104404008D83A909E50AC9F888107418780812156B
:1044140061E5104508F8C3E098A3E099850C82850E
:104424000D83780812163340188C828D83741878A3
:1044340008121561E5104508F8E0C398F8A3E08078
:104444001C74187808121561E5104508FAE9FB8C0C
:10445400828D83E0F8A3E0F9EAC398F8EB99F9C3F5
:10446400E8950EE9950F5006880E890FEEFF0EE5CC
:104474000C2404F50CE50D3400F50DEEC394135033
:10448400030243E274FF650E700474FF650F60233A
:104494008F087402780812176874482508F5827426
:1044A400783509F5837808121633851282851383CB
:1044B400E508F0EC2402FCED3400FD85128285133E
:1044C40083A3858212858313740C1217C7E5826C4B
:1044D4007003E5836D60030243D07508017509001C
:1044E40078081219FE74021217C7AC82AD837AB62B
:1044F4007B091211427402121791740C1217917FE6
:104504000C0218BDC082C0839061AE7468F0A374BD
:104514006AF090624574FBF0A304F053F4FD43FE8B
:104524000290053F7401F09061A0E0643A90619AB2
:1045340070237433F0A37455F09061A0743AF0744E
:104544000164017009C2919003A6746780289003E6
:10455400A674618021743FF0A3745AF09061A07432
:104564007FF0740164017009D2919003A674718084
:10457400059003A6746A02436A7F080218BDC082CC
:10458400C0839004F1E06401700A9004F6E06004D2
:10459400790C8002790002436BC082C08375E1F11B
:1045A4009004F4E0605B14600914605F14605714B5
:1045B400705E120BDE9004EAE0F97AEB7B04120DD4
:1045C400B27AD67BBE7C897D8E120DE87A557B55F6
:1045D4007C557D00120DBE9004F5E0F9120DCA79E8
:1045E40001120E249004E8E0F8A3E0C82416F58232
:1045F400E83400F58374F6F0A3740BF079000243F9
:104604006B120BE480AF120BEA80AA120BF080A5A8
:10461400791280EA74F01217EB75D90D9004D5E085
:10462400A2E0E4331313F89004EAE0C4333354C033
:10463400484401F5D978E8790488828983A3A3A33F
:10464400E0F5D988828983A3A882A983E864EE70FF
:1046540003E9640470E378D5790488828983A3E04C
:10466400F5D988828983A3A882A983E864DB7003CF
:10467400E9640470E575E1959004D5E0F97AD67B98
:1046840004120DB8900A147490F0A3740BF0A37480
:10469400ECF0A3740CF0A374ECF0A3740CF0A3740A
:1046A400ECF0A3740CF0A37496F0A3740BF0A37451
:1046B400ECF0A3740CF0A374AEF0A3740BF0900AA6
:1046C4002274ECF0A3740CF0A374ECF0A3740CF05B
:1046D400A374ECF0A3740CF0A374ECF0A3740CF0CA
:1046E400A374ECF0A3740CF0A374ECF0A3740CF0BA
:1046F4009004F4E064019004E87012E0F8A3E0F59B
:10470400838882A3A37508007509088010E0F8A3C4
:10471400E0F5838882A3A3750804750900750A006F
:10472400750B0078081215AC750CFF750DFF750E2E
:10473400FF750F007808790C1215FA9004E8E0F878
:10474400A3E0C8240EF582E83400F5837808121635
:10475400429004E8E0F8A3E0C82414F582E83400A9
:10476400F5837413F09003A27402F002457D74F78C
:104774001217EB9004FAE02407F5D99004EAE0C498
:10478400333354C0F5D978E8790488828983A3A3A4
:10479400A3E0F5D988828983A3A882A983E864EE7B
:1047A4007003E9640470E39004FAE0601F78E87928
:1047B40004FAE82413F582E93400F583E0F5D98896
:1047C400828983A3A882A9831AEA70E690051AE075
:1047D4002407F5D99004EAE0C4333354C04404F503
:1047E400D978E8790488828983A3A3A3E0F5D988DA
:1047F400828983A3A882A983E864EE7003E9640430
:1048040070E390051AE0601F78E87904FAE824332D
:10481400F582E93400F583E0F5D988828983A3A879
:1048240082A9831AEA70E675E195900A14749CF0E3
:10483400A3740BF0A374ECF0A3740CF0A374ECF069
:10484400A3740CF0A374ECF0A3740CF0A37496F0AE
:10485400A3740BF0A374ECF0A3740CF0A374AEF087
:10486400A3740BF0900A2274ECF0A3740CF0A374FC
:10487400ECF0A3740CF0A374ECF0A3740CF0A37428
:10488400ECF0A3740CF0A374ECF0A3740CF0A37418
:10489400ECF0A3740CF09004E8E0F8A3E0C8240E54
:1048A400F582E83400F58374FFF0A3F0A3F0A3F0DD
:1048B4009004E8E0F8A3E0C82414F582E83400F595
:1048C400837412F09003A27401F0FF0218BD74F710
:1048D4001217EB9004FAE02407F5D99004EAE0C437
:1048E400333354C04402F5D978E879048882898343
:1048F400A3A3A3E0F5D988828983A3A882A983E826
:1049040064EE7003E9640470E39004FAE0601F78D5
:10491400E87904FAE82413F582E93400F583E0F534
:10492400D988828983A3A882A9831AEA70E675E1EB
:1049340095900A1474A8F0A3740BF0A374A8F0A3C0
:10494400740BF0A374A8F0A3740BF0A374A8F0A3E1
:10495400740BF0A374A8F0A3740BF0A374A8F0A3D1
:10496400740BF0A374AEF0A3740BF0900A2274ECF1
:10497400F0A3740CF0A374ECF0A3740CF0A374EC27
:10498400F0A3740CF0A374ECF0A3740CF0A374EC17
:10499400F0A3740CF0A374ECF0A3740CF09004E88E
:1049A400E0F8A3E0C8240EF582E83400F58374FF30
:1049B400F0A3F0A3F0A3F09004E8E0F8A3E0C82487
:1049C40014F582E83400F5837414F09003A274049F
:1049D400F0024C9974F71217EB9004FAE02407F5EF
:1049E400D99004EAE0C4333354C04406F5D978E8D6
:1049F400790488828983A3A3A3E0F5D98882898373
:104A0400A3A882A983E864EE7003E9640470E390C8
:104A140004FAE0601F78E87904FAE82413F582E9DF
:104A24003400F583E0F5D988828983A3A882A98319
:104A34001AEA70E690051AE02407F5D99004EAE032
:104A4400C4333354C04404F5D978E879048882899E
:104A540083A3A3A3E0F5D988828983A3A882A98329
:104A6400E864EE7003E9640470E390051AE0601FE3
:104A740078E87904FAE82433F582E93400F583E030
:104A8400F5D988828983A3A882A9831AEA70E67576
:104A9400E195900A1474A2F0A3740BF0A374ECF0E3
:104AA400A3740CF0A374ECF0A3740CF0A374ECF0F6
:104AB400A3740CF0A374ECF0A3740CF0A374ECF0E6
:104AC400A3740CF0A374AEF0A3740BF0900A2274D8
:104AD400ECF0A3740CF0A374ECF0A3740CF0A374C6
:104AE400ECF0A3740CF0A374ECF0A3740CF0A374B6
:104AF400ECF0A3740CF0A374ECF0A3740CF0900429
:104B0400E8E0F8A3E0C8240EF582E83400F58374E5
:104B1400FFF0A3F0A3F0A3F09004E8E0F8A3E0C84A
:104B24002414F582E83400F5837415F09003A2741C
:104B340003F0024C99C082C0839004E8E0F8A3E03B
:104B4400C82406F582E83400F583E402436874F768
:104B54001217EB9003D0E0F875F003A4C8AAF02A6A
:104B6400F974D228F8740339F9E82405FAE9340011
:104B7400FB8A828B83E0FCA3E0FD88828983A3A364
:104B8400A3A3A3A3A3A3A3ECF0A3EDF0888289833A
:104B9400A3A3A3A3A3A3A3E024FFF8A3E034FFF9F2
:104BA4008A828B83E8F0A3E9F0024C9974F7121718
:104BB400EBEAFEEBFF9061D0E06003024C8D75D907
:104BC4000E75D90375D904EE248BF582EF3400F504
:104BD40083E5822408F8E5833400F9E0F5D9A3E8F5
:104BE40065827003E9658370F2EE2483F582EF3405
:104BF40000F583E5822404F8E5833400F9E0F5D96F
:104C0400A3E865827003E9658370F275E19579081C
:104C1400EE248BFAEF3400FB120C987904EE248313
:104C2400FAEF3400FB120C987C00EEF8EFF9ECFA82
:104C3400C3E49AFA95E0FBEE2AFAEF3BFBEA248AF6
:104C4400F582EB3400F583E0C0E0E824AAF582E9BC
:104C54003400F583D0E0F00C88828983A3A882A96C
:104C640083ECC3940840C7EE246FF582EF3400F55B
:104C740083E0F8A3E0F9EE2471F582EF3400F583C4
:104C8400E8F0A3E9F07901800279008008F0EEA24F
:104C9400E092AF79007F010218BDC082C08375D94C
:104CA4000275D90375D90575E195EA246FF582EB90
:104CB4003400F583E0F8A3E0F9EA2471F582EB34DB
:104CC40000F583E8F0A3E9F0790102436B74F6126E
:104CD40017EBEAFEEBFF9005457406F07508457581
:104CE400090578081219FE7C017903120CE074029C
:104CF40012179175D90675D903758245758305E038
:104D0400F5D9A3E582644A7004E583640570F075FF
:104D1400E1959003A2E06408701EEE246FF582EF23
:104D24003400F583E0F8A3E0F9EE2471F582EF3462
:104D340000F583E8F0A3E9F07901024F9F74F612BD
:104D440017EBEAFEEBFF9061D0E070667801900506
:104D540045740BF09003A2E064077019750845755B
:104D6400090578081219FE7C017903120CE074021B
:104D74001217917805740128F5D975D90375824500
:104D8400758305E8FAE0F5D9A31AEA70F875E19598
:104D9400EE246FF582EF3400F583E0F8A3E0F9EE3A
:104DA4002471F582EF3400F583E8F0A3E9F079018A
:104DB40080027900024F9F74F71217EBEAFEEBFFB3
:104DC40075D90375D90375D90DEE24DDF582EF3459
:104DD40000F583E0F5D975E1957904120DEEEE2422
:104DE4006FF582EF3400F583E0F8A3E0F9EE247167
:104DF400F582EF3400F583E8F0A3E9F07901024C81
:104E04009974F61217EBEAFEEBFF9061D0E0F874A8
:104E140080C398FAEE2482F582EF3400F583E060D3
:104E240004780480027800E8240BF8EAC39850035D
:104E3400024ECA7D09900545EDF0EE24E2F8EF3408
:104E440000F97A467B057C0888828983E08A828B14
:104E540083F088828983A3A882A9838A828B83A30F
:104E6400AA82AB831CEC70E0EE2482F582EF34005E
:104E7400F583E0601D75084575090578081219FE6B
:104E84007C097903EEFAEFFB120CE074021217911D
:104E94007D0D74012DF5D975D9037582457583058A
:104EA4008D08E0F5D9A31508E50870F675E1957944
:104EB40004120DEEEE241DF582EF3400F583E4F0C8
:104EC400A3F0790180027900024F9F74F61217EB68
:104ED400EAFEEBFF9061D0E0F87480C398FAEE2408
:104EE40082F582EF3400F583E06004780480027870
:104EF40000E82408F8EAC3985003024F9D7806900E
:104F04000545740CF09003BFE0900546F09003C093
:104F1400E0900547F09003C1E0900548F09003C28B
:104F2400E0900549F09003C3E090054AF0EE248236
:104F3400F582EF3400F583E0601B750845750905BB
:104F440078081219FE7C067903EEFA120CE074025A
:104F5400121791780A740128F5D975D90375824519
:104F64007583058808E0F5D9A31508E50870F6757A
:104F7400E1957904120DEEEE246FF582EF3400F51D
:104F840083E0F8A3E0F9EE2471F582EF3400F583B1
:104F9400E8F0A3E9F07901800279007F020218BDEC
:104FA40074F61217EBEAFEEBFF9061D0E0F8748020
:104FB400C398FAEE2482F582EF3400F583E06004AE
:104FC400780480027800E82404F8EAC398500302C5
:104FD400507E7802900545E8F0EE24F4F582EF3433
:104FE40000F583E0900546F0EE2482F582EF34006C
:104FF400F583E0601B75084575090578081219FEEC
:105004007C027903EEFA120CE0740212179178060E
:10501400740128F5D975D903758245758305880807
:10502400E0F5D9A31508E50870F675E195EE24734B
:10503400F582EF3400F583E4F0EE247FF582EF345B
:1050440000F583E4F0EE241DF582EF3400F583E4EB
:10505400F0A3F07904120DEEEE240DF582EF340086
:10506400F583E0F8A3E0F9EE2471F582EF3400F55E
:1050740083E8F0A3E9F0790180027900024F9F747C
:10508400F61217EB9061D0E0F87480C398FCEA2420
:1050940082F582EB3400F583E060047804800278C2
:1050A40000E82404F8ECC398405B79029005457449
:1050B40007F0EA24F5F582EB3400F583E090054629
:1050C400F0EA2482F582EB3400F583E06018750879
:1050D4004575090578081219FE7C0209120CE07462
:1050E400021217917906740129F5D975D9037582CD
:1050F40045758305E9F8E0F5D9A318E870F875E17A
:1051040095790180027900024F9F74F51217EBE93B
:10511400FCA2AFE433F50AC2AF7D0080010DEA249E
:105124006EF582EB3400F583E0F8EDC398501A8DE8
:1051340008EA2508F8EB3400F9E8246AF582E93432
:1051440000F583E06C70D68024EA246EF8EB34001A
:10515400F9E0FEEA2EFAEB3400FBEA246AF582EB6E
:105164003400F583ECF088828983E004F0E50AA238
:10517400E092AF7F030218BD74F61217EBA2AFE4FE
:1051840033FDC2AFEA246EF582EB3400F583E014FC
:10519400F07C0060368C08EA2508F8EB3400F9E866
:1051A400246BF582E93400F583E0C0E0E8246AF575
:1051B40082E93400F583D0E0F00CEA246EF582EB4A
:1051C4003400F583E0F8ECC39840CAEA246DF58214
:1051D400EB3400F58374FFF0EA2469F582EB3400C4
:1051E400F583E4F0EDA2E092AF024F9FC082C0834A
:1051F400E5A8F8C2AFEA246AF582EB3400F583E946
:10520400F0EA2469F582EB3400F583E4F0E8A2E7E0
:10521400A2E792AF02436B74F31217EBEAFEEBFFC3
:10522400ECFAEDFB8A828B83A3A3A3A3E0541FF0C3
:10523400EE2436F582EF3400F583E4F0F50AEEFC53
:10524400EFFD8A828B83E0C0E0EC245DF582ED34CF
:1052540000F583D0E0F0750B00E50A33333354F8DE
:10526400F50C8A828B83E0F508750900E50B780854
:10527400121749E508A2E0502FEE2436F8EF340067
:10528400F988828983E0F508EE2508F508EF3400F3
:10529400F509E5082438F582E5093400F583E50CC1
:1052A400F088828983E004F0050B050CE50BC394B8
:1052B4000840AF050A8A828B83A3AA82AB838C82BF
:1052C4008D83A3AC82AD83E50AC3940550030252D7
:1052D400467F050218BD74F71217EB9003CEE06405
:1052E4000170030254387A009003D4E0600302543E
:1052F400387401F0A3E4F0A3F090043404F09004B3
:1053040039F09003D7E4F0A3F0A3F0A3F09003E105
:1053140004F0900407E4F09003EAF0A3F0A3F0A3F0
:10532400F0A3F0A3F0A3F0900451F0900445F090A2
:10533400043A7480F0A3E4F0900440F09004BCF0CC
:10534400A3F0A3F0A3F0A3F0A3F0A3F0A3F09004C0
:10535400C5F0900454F09004A4F0A3F0A3F0A3F0DB
:10536400A3F0A3F0A3F0A3F0A3F0A3F09004B0F093
:105374009004B2F09004AEF09004C8F0A3F0A3F04F
:10538400A3F0A3F0A3F0A3F0A3F078CE7903E8246C
:105394006EF582E93400F58374FFF00A888289830C
:1053A400A3A882A983EAC3940440E37ACE7B03785A
:1053B400DC790488828983E0C0E0EA2461F582EB29
:1053C4003400F583D0E0F088828983A3A882A9837E
:1053D4008A828B83A3AA82AB83E864E17003E964C5
:1053E4000470D07ACE7B0378B5790388828983A34D
:1053F400E0C0E0EA24E6F582EB3400F583D0E0F087
:1054040088828983A3A882A9838A828B83A3AA82A0
:10541400AB83E864BD7003E9640370CF9003CEE00E
:1054240004F0640170089003D6E09003D0F07AD2BF
:105434007B0380047A007B00024C99C082C0839075
:1054440003D5E4F09003D4F09003CEF0A3F0A3745A
:10545400FFF075E1F102436BC082C08378007900EC
:105464009003D5E0600478D2790388828983A3A36A
:10547400A3A3E0F902436B74F61217EBEAFEEBFF09
:10548400EE2463F582EF3400F583E0F8A3E0F9E855
:10549400497003025520EE2463F8EF3400F97A00D2
:1054A4007B00A2AFE433F508C2AF88828983E0FCB5
:1054B400A3E0FDEC4D603A88828983E0FAA3E0FB27
:1054C4008A828B83E0FCA3E0FD88828983ECF0A3CD
:1054D400EDF08A828B83E4F0A3F088828983E0FC78
:1054E400A3E0FDEC4D700A88828983A3A3E4F0A3B2
:1054F400F0E508A2E092AF1212689004E2E004F032
:105504009004E3E004F0EE2463F582EF3400F583C5
:10551400E0F8A3E0F9E849600302549A8E828F838D
:10552400A3A3A3E0600F8E828F83A3A3A3E4F090D0
:1055340003CFE014F09003CEE014F070069003D093
:1055440074FFF08E828F83A3A3E4F09004E1E070F3
:105554000D9003CFE0640170057900120DD0EEFACE
:10556400EFFB120D10024F9F74F71217EBEAFEEBDC
:10557400FF8E828F83A3A3A3A3E0FA7B001209EC1E
:10558400EEFAEFFB120C62120CF8024C99C082C0C6
:105594008378B5790388828983A3E4F08882898338
:1055A400A3A882A983E864BD7003E9640370E6904C
:1055B40003B6740102436A74F61217EBEAFEEBFFBA
:1055C400EC2403F8ED3400F988088909EC2407F881
:1055D400ED3400F9E8FCE9FD8C828D83E0F8A3E06A
:1055E400F9850882850983E0FAA3E0FB1216F0EE40
:1055F400240DF582EF3400F583E8F0A3E9F08C8202
:105604008D83E0F8A3E0F9850882850983E0FAA395
:10561400E0FB1216F08B09EA45096013EE240DF540
:1056240082EF3400F583E02401F0A3E03400F002BB
:105634004F9F74F61217EBEAFEEBFFEE242EF58271
:10564400EF3400F583E0FCA3E0FD780079FAECFA8E
:10565400EDFB1216F0EE246FF582EF3400F583E8CB
:10566400F0A3E9F0780079FAECFAEDFB1216F08B6E
:1056740009EA45096013EE246FF582EF3400F583DF
:10568400E02401F0A3E03400F0024F9F74EC121701
:10569400EBEAFEEBFF74141217C7780812163312E4
:1056A4000D948A0C8B0D8C0E8D0F751002751100E4
:1056B400751200751300780C79101215997510FF86
:1056C4007511FF7512FF780C79101215FA780C1207
:1056D40019FA8E828F83E0F8A3E0F5838882A3A36E
:1056E4001216511224097404121791E96003025727
:1056F400F48E828F83E02402F8A3E03400F9E8FA00
:10570400E9FB8A828B8378081215BF8A828B8375A2
:1057140008FF7509FF750AFF750B0078081216203B
:10572400EE240BF582EF3400F583C082C0838E82B1
:105734008F83A3A3A3A3A3E02401F8A3E03400F977
:10574400D083D082E0687003A3E069700579010218
:1057540057F68E828F83A3A3A3A3A3A3A3E024015C
:10576400F0A3E03400F0EE2473F582EF3400F58307
:10577400E064017036EE2474F582EF3400F583E0C2
:10578400F8A3E0F98E828F83A3A3A3A3A3A3A3E02A
:10579400687003A3E0697013EE2474F582EF34009B
:1057A400F583E02401F0A3E03400F0EE247FF582D9
:1057B400EF3400F583E064017036EE2480F582EF67
:1057C4003400F583E0F8A3E0F98E828F83A3A3A3CA
:1057D400A3A3A3A3E0687003A3E0697013EE24807D
:1057E400F582EF3400F583E02401F0A3E03400F007
:1057F400790002450374F61217EBE9FEECFFEA2484
:1058040062F582EB3400F583E0640160030258A280
:105814009061D0E0F508EA2482F582EB3400F58348
:10582400E060047804800278007480C39508FC95D5
:10583400E0FDEF28F8E43400F9E82402F8E9340044
:10584400F9EC98ED99A2D265D033404E740A121740
:10585400C7E0F508A3E0F509EA2482F582EB3400F9
:10586400F583E0601578081219FEEFFCEEF9120CCE
:10587400E0740212179174042FFF74012FF5D98E6E
:10588400D9EF600F850882850983F8E0F5D9A3185C
:10589400E870F875E195790080067907800279FF50
:1058A400024F9F74F71217EBA2AFE433FEC2AF8A24
:1058B400828B83E0F8A3E0F9E8498A828B83600A4B
:1058C400A3A3E0F8A3E0F5838882ECF0A3EDF08ACB
:1058D400828B83A3A3ECF0A3EDF08C828D83E4F0A0
:1058E400A3024C9174F71217EBE96021F88C828DB6
:1058F40083E08A828B83F08C828D83A3AC82AD8318
:105904008A828B83A3AA82AB8318E870E0ECFAED59
:10591400FB024C9974F41217EB907803E064427024
:1059240055900544E014F0704DC2AF12593200781E
:105934002AD0E0F618D0E0F6E59F54077005750903
:10594400FF800375097FC4C0E07829E6F50808E6FE
:105954005509F509740B7808121759D0E02508F891
:10596400906270E0A2E740F8E8C333906272F0906E
:105974006270E0D2E0F09003D0E0F47003025D12B4
:10598400E0F875F003A4C8AAF02AF974D228FE74CA
:105994000339FFEE2401F582EF3401F583E0F8A327
:1059A400E0F9E849601EEE2401F582EF3401F58345
:1059B400E0FAA3E0FBEE2400F582EF3401F583E086
:1059C400F91212388E828F83A3A3A3A3A3A3A3E007
:1059D400F8A3E0F98E828F83A3A3A3A3A3E8F0A383
:1059E400E9F0906054E09003A9F0906055E09003D2
:1059F400AAF0906056E09003ABF0906057E09003FB
:105A0400ACF0906058E09003ADF0906059E09003E2
:105A1400AEF090605AE09003AFF090605BE09003CA
:105A2400B0F090605CE0FC9003B1F090605DE0FB4E
:105A34009003B2F090605EE0FD9003B3F090605F7D
:105A4400E0FA9003B4F09003AFE08C082508F8E482
:105A54003400F98D08E82508F8E93400F98B08E8E2
:105A64002508F8E93400F98A08E82508FAE9340039
:105A7400FBEE24F6F582EF3400F583E02AF0A3E090
:105A84003BF08C08EE24F8F582EF3400F583E02532
:105A940008F0A3E03400F0EE24FAF582EF3400F5C8
:105AA40083E02401F0A3E03400F0EE24FEF582EF5D
:105AB4003400F583E0F8A3E0F9E84960429060001F
:105AC400E0C333FCE433FDE82CF582E93DF583E0E3
:105AD4002AF0A3E03BF0906000E0FA9003B1E0FC10
:105AE400EAC333FAE433FBE82AF8E93BF9E8244A49
:105AF400F582E93400F583E02CF0A3E03400F09063
:105B040003AFE070119003B2E0700BA3E07007A341
:105B1400E07003025C0F8E828F83A3A3A3A3A3E090
:105B2400F8A3E0F9EE240DF582EF3400F583E028C4
