:020000040000FA
:0600000002010A022008C3
:03002B0002245755
:030033000224396B
:0300530002207E0A
:03006B0002241359
:10008300021EB7E5C754F84401F5C7790122000001
:100093000080FB120086B900030200F4E4792178A2
:1000A30008B800028004F709D8FCE479297802B87B
:1000B30000028004F709D8FCE490028178A679074E
:1000C3008002F0A3D8FCD9FA900926AA82AB8390C8
:1000D300013A780279048015E493A3AC82AD838A54
:1000E300828B83F0A3AA82AB838C828D83D8E9D9D8
:1000F300E775820575839B740312011C75829175E4
:100103008300740012011C75D00075813F7518813E
:10011300751902759F00020096C09FF59FE473D086
:100123009F22D083D082C09FE493C0E0740193C028
:10013300E0740293F59F22FF0000B400002800281A
:1001430000283075A000A000A000A000000800084F
:10015300E001F0001000100010001000100010006B
:1001630050005000500010001000D00700000000A5
:1001730000000F00010005003075070010000100AA
:1001830081FF00000000FF390657063F06FF020209
:100193000208025000A0000000E803028E90010054
:1001A3000065900290900100007D09026C900100AF
:1001B30000B3020290900100007E09026E900100DC
:1001C30000C9020290900100007F090270900100B3
:1001D30000CB020290900100008009027290080097
:1001E30000CC02029090010000810902749001008A
:1001F300008209FF0100FF20028E900100005F9042
:10020300029090010000E6090276900000000000D1
:10021300026A900300001903690C690C690C690CEC
:10022300690C690C690C690C690C690C690C690C23
:10023300690C3F0F570F390FFFFF02020202020240
:10024300020202010D0000001001028E9001000065
:100253006290029090010000290A02889001000038
:100263005D070290900100002A0A028690010000B7
:10027300688F0290900100002B0A02849001000015
:100283003F8F0290900100002C0A0282900100002F
:10029300958E0290900100002D0A028090010000CB
:1002A300B98E0290900100002E0A027E9001000098
:1002B300CB8E0290900100002F0A027C9001000077
:1002C300A78E029090010000300A027A900100008C
:1002D3004D8F029090010000310A026890010000E6
:1002E300320A01E803053F100AFF000130750302DB
:1002F30001060000000000000000000000000000F4
:100303000000000000000000000000000000FFFFEC
:100313000600800CE803140953696D706C65424C48
:10032300455065726970686572616C0512500020F2
:1003330003020A000201060302F0FF53696D706CA9
:100343006520424C45205065726970686572616C26
:100353007113000077130A436861726163746572F5
:100363006973746963203100024368617261637465
:10037300657269737469632032000843686172614E
:100383006374657269737469632033001043686131
:100393007261637465726973746963203400024324
:1003A300686172616374657269737469632035008F
:1003B300028E90010000B98F029090010000450B5E
:1003C30002A0900300001709029C90010000460B55
:1003D300029090010000570B02A29001000018093F
:1003E300029C90010000580B029090010000690BE1
:1003F3000294900200001909029C900100006A0B0C
:100403000290900100007B0B028C900000001A09FF
:10041300026A900300001B09029C900100007C0B00
:100423000290900100008D0B0296900400002109B8
:10043300029C900100008E0B120125CE8C03120149
:1004430025E58C03120125168D03120125518D0319
:100453001201257B8D03120125A58D03120125BCF5
:100463008D03120125D38D03120125EA8D03120199
:1004730025138E03120125268E031201253C8E03BC
:100483001201254F8E03120125768E0312012501D9
:1004930098021201250599021201253D99021201C4
:1004A300256099021201256B99021201258E99028A
:1004B3001201259D9A02120125729B02120125ED5C
:1004C3009B02120125759C02120125B09C021201A8
:1004D30025E79C02120125759D021201254E9E02FD
:1004E300120125AE9E02120125B99E021201253882
:1004F3009F021201253B9F021201253E9F0212011A
:1005030025CD9F02120125D09F0212012500A002D2
:100513001201252AA00212012518A102120125CADF
:10052300A102120125A0DE02120125C8DE0212017A
:1005330025F6DE021201252DDF021201258BDF02D3
:10054300120125D6DF0212012521E00212012561E5
:10055300E002120125A7E002120125D5E0021201F3
:100563002592E1021201259CE102120125A9E10273
:10057300120125DCE102120125A8E202120125B4D1
:10058300E202120125CCE202120125D6E202120197
:10059300259C9603120125AA9603120125C29603F0
:1005A300120125DA96031201259FB0011201254B92
:1005B300B101120125C6B101120125E7B2011201F1
:1005C3002523B301120125CCB301120125B3B401D4
:1005D30012012517B6011201256EB601120125EF8E
:1005E300B601120125DFB7011201252CB801120152
:1005F30025B2B801120125E4B801120125F8BA01A8
:100603001201253ABB0112012558BB01120125DB5A
:10061300BB01120125AFBC0112012577BD011201F7
:100623002593CD0212012566CE021201250FCF02BA
:1006330012012562CF0212012512D0021201259E5A
:10064300D0021201258AD102120125B9D102120169
:1006530025CCD20212012514D302120125E9D302BB
:1006630012012525D40212012541D402120125626B
:1006730099031201259BF002120125B1F002120128
:1006830025D7F002120125F3F102120125FDF10233
:1006930012012532F3021201252AF402120125B6B2
:1006A300D402120125E6D50212012519D602120140
:1006B3002563D6021201252AD802120125B0A00112
:1006C3001201251AA10112012579A201120125891E
:1006D300A201120125B6A2011201250DA3011201E7
:1006E30025B6A301120125BDA40112012587A50189
:1006F300120125E7A6011201252AA701120125CF20
:10070300A7011201251CA80112012542A80112010B
:100713002550AA0112012555AA011201255AAC013F
:10072300120125A7AC011201251AAD011201254DB5
:10073300AD01120125EFAD0112012598AE011201A1
:1007430025D0AE01120125D3AE011201251BAF0145
:100753001201255BAF01120125B2AF01120125F988
:100763008203120125118303120125598303120108
:10077300256F8303120125B68303120125CA84035F
:10078300120125578503120125A285031201258035
:1007930024001201258C2400120125C72400120114
:1007A300250C2500120125CC250012012552260017
:1007B300120125B72600120125E326001201251C8C
:1007C30027001201255A29001201253E2B00120190
:1007D30025242D00120125672E00120125B53000B6
:1007E300120125C7310012012512330012012522FF
:1007F30034001201253F34001201257A340012011E
:10080300259C3400120125FF3400120125C0390054
:10081300120125553A00120125A63A00120125CDF1
:100823003A001201251F3B001201253D3B00120136
:1008330025973B00120125803C00120125F63D005F
:100843001201257A3E001201255DE302120125679C
:10085300E302120125AAE302120125C5E3021201F4
:100863002555E4021201257DE402120125BAE402B2
:10087300120125F1E4021201251AE5021201258F66
:10088300E502120125A4E502120125B9E5021201D0
:1008930025EAE502120125FEE50212012523E602FF
:1008A3001201255DE60212012589E602120125C126
:1008B300E60212012540E70212012589E70212012F
:1008C30025B3E702120125DEE702120125DA7E00D5
:1008D3001201250080021201252E80021201257CBF
:1008E30081021201255C82021201257B8202120120
:1008F30025F882021201253B83021201259184020D
:10090300120125528502120125D987021201257A87
:1009130088021201257089021201256D8A021201D3
:1009230025C78B02120125528C021201254693031F
:10093300120125AF93031201250394031201252A03
:1009430094031201255B940312012506E8021201A8
:100953002573E802120125BAE802120125D2E90241
:10096300120125CEEA02120125B1EB021201256123
:10097300F701120125A3F70112012575F8011201F0
:10098300254EF90112012548FA011201252AFB011E
:1009930012012593FB0112012549FC01120125BD1A
:1009A300FC0112012529FD0112012552FD0112014D
:1009B30025CCFD0112012565FE01120125CAFE01A8
:1009C300120125DFFE0112012525FF011201253E3B
:1009D300FF01120125A3FF01120125A6FF01120148
:1009E3002500800312012528800312012566800358
:1009F3001201252481031201258B8103120125A7EE
:100A03008103120125CF8103120125FF8103120106
:100A1300250E82031201258B8203120125B1820365
:100A2300120125A9900112012547920112012562A5
:100A330094011201259E9401120125CB9401120108
:100A430025B09501120125F795011201253B960169
:100A53001201254D96011201258D9601120125BA29
:100A630096011201250597011201254597011201EF
:100A730025739701120125C5970112012555980188
:100A8300120125F39A01120125099D01120125473F
:100A93009D01120125D89E011201251D9F011201FE
:100AA30025949F01120125DE9F0112012509A00152
:100AB30012012505AC0212012584AC021201254660
:100AC300B20212012555B302120125BDB40212016F
:100AD3002554B502120125775400120125C0540094
:100AE300120125ED54001201252055001201252D78
:100AF30055001201253955001201254B55001201ED
:100B030025325600120125905600120125C55600C4
:100B130012012508580012012555580012012579A4
:100B23005800120125E65800120125A459001201AC
:100B3300255D5A00120125CA5A001201257C5B006B
:100B43001201258C5B00120125135C00120125D2D2
:100B53005C00120125FF5C00120125785D00120183
:100B630025D55D001201251F5E00120125B55E002B
:100B7300120125805F00120125356000120125AAAC
:100B830060001201250B610012012575610012013D
:100B930025AE610012012550620012012560630039
:100BA300120125A06300120125BD6300120125DC9B
:100BB3006300120125236400120125486400120119
:100BC30025756400120125EF6400120125306500CC
:100BD3001201255466001201250467001201255BEA
:100BE3006700120125C56700120125DE67001201A7
:100BF300253BA2021201258EA2021201259AA2020E
:100C03001201256FA30212012596A302120125D119
:100C1300A3021201253DA40212012579A4021201A7
:100C230025B2A402120125CAA4021201251FA5029E
:100C330012012538A50212012581A502120125946E
:100C4300A502120125AEA502120125C4A5021201B7
:100C530025F7A6021201253EA80212012540A9028A
:100C63001201253AAA02120125F37F001201252A57
:100C7300EA011201255AEA0112012522EE011201AD
:100C83002579EF0112012542F001120125C2F1017C
:100C930012012593F201120125D0F201120125F36D
:100CA300F20112012531F3011201253AF301120178
:100CB3002584F3011201258EF30112012538F40175
:100CC30012012511F50112012565F501120125C750
:100CD300F5011201251AF60112012549F601120147
:100CE3002586F601120125106800120125776B0095
:100CF3001201257D6B00120125FF7000120125787A
:100D030075001201254E7900120125C8F702120160
:100D1300253EF80212012554F80212012595F80226
:100D2300120125CFF80212012548F9021201258389
:100D3300F902120125F6F90212012534FA02120111
:100D4300253DFA0212012549FA0212012565FA022C
:100D530012012590FA02120125A6FA02120125EAD0
:100D6300FA02120125DDD902120125F0D90212017E
:100D7300250ADA0212012533DA0212012576DA0294
:100D8300120125B5DA02120125F3DA021201255800
:100D9300DB021201256DDB0212012578DB02120151
:100DA3002585DB021201259CDB02120125AADB0249
:100DB300120125B5DB02120125C1DB02120125D484
:100DC300DB02120125DFDB0212012502DC02120124
:100DD30025A9DC02120125B9DC02120125D3DC02AC
:100DE300120125F0DC021201250CDD02120125316E
:100DF300DD021201253CDD0212012551DD02120143
:100E03002565DD02120125C6DD02120125CCDD02B6
:100E1300120125D2DD02120125D8DD02120125F0CF
:100E2300DD0212012523DE0212012501CE0112018A
:100E33002585CE0112012534CF0112012593D0015E
:100E4300120125B4D201120125A0D301120125D527
:100E5300D301120125F7D301120125A6D4011201F2
:100E6300259ED601120125C7D60112012559D701A6
:100E73001201258BD70112012598D701120125EF05
:100E8300D70112012515D80112012582DA011201B9
:100E93002585DB01120125DDDB0112012590BF0150
:100EA3001201259AC00112012581C1011201258B6E
:100EB300C101120125ADC101120125B9C101120100
:100EC3002552C30112012581C3011201259DC401CD
:100ED300120125F6C4011201255CC6011201253B4E
:100EE300C70112012597C70112012504C801120188
:100EF300253FC8011201257EC80112012537CB0108
:100F030012012551CB01120125DDCB01120125EB85
:100F1300CB0112012544CC0112012552CC0112014F
:100F230025C5CC0112012529CD0112012573CD015F
:100F3300120125D38C02120125F58C021201251B07
:100F43008F021201253092021201254893021201E9
:100F530025FB9302120125DD9402120125888E03DD
:100F6300120125AD8E031201251F8F0312012519CE
:100F7300C60212012522C6021201252BC602120146
:100F83002502C702120125B3C802120125E9C802CE
:100F930012012523C90212012559C9021201259301
:100FA300C902120125C7C902120125F3C9021201A0
:100FB300253CCA0212012576CA02120125BFCA02C4
:100FC30012012517CB021201254CCB02120125A7D2
:100FD300CB02120125E1CB0212012532CC02120110
:100FE3002568CC02120125A2CC02120125D0CC0225
:100FF300120125F3CC02120125299803120125556C
:101003009803120125B09803120125BA980312011F
:1010130025CA98031201257EB50212012588B5025F
:10102300120125C6B5021201250FB6021201254988
:10103300B602120125A3B602120125C4B60212019B
:10104300259CB902120125A5B902120125F2B902A4
:101053001201251BBA0212012525BA02120125919C
:10106300BA0212012523BB021201256DBB02120134
:1010730025A3BB021201252FBC0212012570BC025D
:10108300120125A7BC02120125B9BC02120125D801
:10109300BC02120125E1BC02120125A9BD02120105
:1010A30025A59503120125DD8A03120125138B0360
:1010B300120125498B03120125948C03120125E6A5
:1010C3009903120125FC9903120125069A031201C3
:1010D30025509A0312012573EC0212012588EC02B4
:1010E3001201253BED021201257BED02120125942D
:1010F300ED02120125CFED021201251CEE021201B1
:10110300254EEE0212012590EE02120125CF910326
:10111300120125F89103120125279203120125BF1D
:101123009203120125019303120125CC85031201B9
:1011330025F185031201251B8603120125AF9A03AE
:10114300120125E13E00120125464100120125E767
:1011530042001201259B43001201252E4400120177
:1011630025B34400120125D844001201252E48005E
:10117300120125B44800120125E749001201252177
:101183004A00120125564A00120125164C0012018D
:1011930025734C00120125BC4C00120125274D007C
:1011A300120125984D00120125CA4D00120125E2B6
:1011B3004D001201252B4F001201253B4F00120158
:1011C30025565000120125785000120125AE50001B
:1011D300120125625200120125EF52001201252E41
:1011E3005300120125525400120125739703120173
:1011F30025849703120125589B03120125979B030E
:10120300120125E5FF02120125D49803120125E4FA
:101213009803120125F998031201255F990312011E
:1012230025A194031201252695031201258C95030C
:101233001201256BFE0212012594FE02120125FF05
:10124300FE0212012550FF02120125ABFF0212011B
:10125300251AFB021201252FFB021201255AFC025B
:10126300120125D6FC021201254AFD021201256452
:10127300FD021201257BFD021201258EFD021201E2
:1012830025A8FD02120125BFFD02120125E5FD027D
:1012930012012536FE02120125139C031201252D8E
:1012A30090031201257F9003120125099103120176
:1012B30025709103120125988803120125C2880322
:1012C3001201259089031201256B8A03120125D788
:1012D300BD021201259EBE02120125D5BE021201D6
:1012E30025FFBE021201255FBF02120125B5BF0211
:1012F3001201251AC002120125B2C002120125C132
:10130300C10212012558C302120125E5C3021201CD
:10131300254CC40212012563C4021201257DC502B6
:10132300120125BBC5021201252BDC01120125ACDC
:10133300DF0112012534E1011201258BE1011201C4
:1013430025AAE10112012528E201120125BEE301CC
:10135300120125A3E401120125B1E8011201258739
:10136300E9011201259D7900120125187C00120163
:1013730025C37C00120125E67D00120125597E005C
:1013830012012534F40212012579F4021201259683
:10139300F4021201254CF5021201259FF5021201F8
:1013A3002575F6021201258FF702120125A19B0371
:1013B300120125CAFF01120125CD9B03120125F558
:1013C3009B03E066701008A3E066700A08A3E0665A
:1013D300700408A3E06622C3E7960809E7960809A4
:1013E300E7960809E79622C3E09608A3E09608A3C8
:1013F300E09608A3E09622C008C3E096F50808A388
:10140300E096420808A3E096420808A3E096450840
:101413007001D3D00822080808EAC0E0EBC0E086D8
:10142300F0E7A4FA180986F0E7A42AFA180986F067
:10143300E7A42AFA180986F0E7A42AFA1986F0E73E
:10144300A4FBE5F02AFA190886F0E7A42BFBE5F0E4
:101453003AFA190886F0E7A42BFBE5F03AFA1818D4
:101463000986F0E7A4C5F02BFBE43AFA1908E7C5AF
:10147300F0C6A426F6E5F03BFBE43AFA1886F0E75B
:10148300A4F6E5F00826F6E43B08F6E43A08F6D0BD
:10149300E0FBD0E0FA22E4CFC0E0E4CEC0E0E4CD4C
:1014A300C0E0E4CCC0E075F020C3E633F608E633D1
:1014B300F608E633F608E633F6181818EC33FCEDB5
:1014C30033FDEE33FEEF33FFC3EC9709ED9709EEDF
:1014D3009709EF97191919400FFFEC97FC09ED973E
:1014E300FD09EE97FE191906D5F0BEECF709EDF7E5
:1014F30009EEF709EFF7191919D0E0FCD0E0FDD098
:10150300E0FED0E0FF226016080808C6C313C61821
:10151300C613C618C613C618C613C6D5E0EA22708A
:1015230009080808226016181818C6C333C608C667
:1015330033C608C633C608C633C6D5E0EA22E62753
:10154300F60809E637F60809E637F60809E637F636
:1015530022E026F608A3E036F608A3E036F608A351
:10156300E036F622E026F008A3E036F008A3E036E2
:10157300F008A3E036F022C3E697F60809E697F6EB
:101583000809E697F60809E697F622C3E096F008FD
:10159300A3E096F008A3E096F008A3E096F022E01B
:1015A30056F608A3E056F608A3E056F608A3E0565D
:1015B300F622E056F008A3E056F008A3E056F00840
:1015C300A3E056F022E0F608A3E0F608A3E0F6084D
:1015D300A3E0F622E6F008A3E6F008A3E6F008A3EA
:1015E300E6F022E0FAA3E0FBA3E0FCA3E0FD22EA9D
:1015F300F0A3EBF0A3ECF0A3EDF022CAC0E0E6F019
:10160300A308DAFAD0E0FA22CAC0E0E0A3C582CC8C
:10161300C582C583CDC583F0A3C582CCC582C583EE
:10162300CDC583DAE6D0E0CA22C3E498F8E499F999
:1016330012166D8026C3E49AFAE49BFBE920E7E9DE
:1016430012166DE498F8E499F922C3E498F8E49942
:10165300F912166DE498F8E499F9C3E49AFAE49B55
:10166300FB22EB20E7CFE920E7E0B90010BB00083D
:10167300E88AF084F8AAF022E4FBC8FA22EB70228D
:101683007B10C833C8C933C9335007C39AC3DBF2CD
:1016930080069A50012ADBEAC833F4C8C933F4C977
:1016A300FA2275F008E4C833C8C933C933C99AC9E3
:1016B3009B5004C92AC93BD5F0ECFBC833F4C8E4FA
:1016C300C9FA22600D08C6A2E713C618C613C6D509
:1016D300E0F322600C08C6C313C618C613C6D5E0D0
:1016E300F422700422600D18C6C333C608C633C67D
:1016F300D5E0F41822251810AF08F5184002151983
:101703008008F51840021519D2AF22C0D025181051
:10171300AF08F518500205198008F518500205198D
:10172300D2AFD0D0222518F58210AF08F5184002A9
:1017330015198008F51840021519D2AF85198322AF
:101743002518F582E43519F58322E4732518C5823B
:10175300C0E0E51934FFC583C0E0E518C3958224D2
:10176300F810AF0885831985821880088583198549
:101773008218D2AFCEF0A3E520F0A37808E608F0F4
:10178300A3DEFAEFF0A3E58124FAF8E608F0A3E676
:1017930008F0A3E608F0A30808E608F0A3E608F0BB
:1017A300A315811581D0E0FED0E0F81581158115D0
:1017B30081E8C0E0EEC0E0222518C582C0E0E5194B
:1017C30034FFC583C0E0E518C3958224F910AF0840
:1017D3008583198582188008858319858218D2AF7D
:1017E300CEF0A3E520F0A37808E608F0A3DEFAEF35
:1017F300F0A3E58124FBF8E608F0A3E608F0A308CC
:1018030008E608F0A3E608F0A315811581D0E0FEF1
:10181300D0E0F815811581E8C0E0EEC0E02285191B
:1018230083851882E0A3FEE0A3F5207808E0A3F601
:1018330008DFFAE0A3FFE0A3C0E0E0A3C0E0E0A379
:10184300C0E0E0A3C0E0E0A3C0E010AF08858218C9
:101853008583198008858218858319D2AFD083D0F8
:1018630082020122851983851882E0A3FEE0A3F595
:10187300207808E0A3F608DFFAE0A3FFE0A3C0E0C6
:10188300E0A3C0E0E0A3C0E0E0A3C0E010AF0885A0
:1018930082188583198008858218858319D2AFD071
:1018A30083D08222C0D02518C582C0E0E51934FF59
:1018B300C583C0E0E518C3958224F310AF08858380
:1018C300198582188008858319858218D2AFC8F0DC
:1018D300A3E9F0A3EAF0A3EBF0A37908E709F0A3E7
:1018E300D8FAECF0A3EDF0A3EEF0A3EFF0A3D0E071
:1018F300F0A3D0E0F0A3D0E0F0A3E520F0A3E5F05F
:10190300F0A322851983851882E0C0E0A3E0F9A340
:10191300E0FAA3E0FBA37808E0F608A3DFFAE0FC13
:10192300A3E0FDA3E0FEA3E0FFA3E0C0E0A3E0C0CB
:10193300E0A3E0F5D0A3E0F520A3E0A3F5F010AF1A
:10194300088583198582188008858319858218D2B2
:10195300AFD082D083D0E0F8D0E032740480067434
:101963000280027401C0E0F404121728D0E01215BB
:10197300FE227404800474028000CCC0E0EDC0E059
:10198300E518C39CCCAD1950011D10AF068C188D02
:101993001980068C188D19D2AF12160BD0E0FDD02A
:1019A300E0FC22D083D082E9C0E0E493A3C386F0B5
:1019B300C5F095F0F908E493A386F0C5F095F070AF
:1019C3000BE493A3C3994005E9048002A3E475F0F3
:1019D30002A42582F582E5F03583F583D0E0F9E4AE
:1019E30093A3C0E0E493C0E022D083D082ECC0E0B4
:1019F300EDC0E0E493A3FCE493A3FDED4C600D1272
:101A03001A38EC24FFFCED34FFFD80EFE493A3FCD4
:101A1300E493A3FDED4C600D121A77EC24FFFCED6B
:101A230034FFFD80EFD0E0FDD0E0FCE493A3C0E001
:101A3300E493C0E022C0E0C3E49396087401939654
:101A430018400FE4936670080874019366187000D9
:101A53007019A3A3C3E49396087401939618A3A3E0
:101A6300400DD0E0D0E0D0E0021A28A3A3A3A3A3A3
:101A7300A3D0E022C0E0C0F088F0E49366700808C9
:101A830074019366187000A8F0A3A3700BD0F0D074
:0F1A9300E0D0E0D0E0021A28A3A3D0F0D0E022E8
:101AA40074F51217BBEAFEEBFFEE2434F8EF3400B2
:101AB400F988088909EE2435121BD0F8EE24371270
:101AC4001BD0F50AEC850AF0A4FCAAF0850AF0ED17
:101AD400A42AFDE82CF8E43DF97A257B0012166D62
:101AE400EA850882850983F074075AF87401B800FE
:101AF400028004C333D8FCFBEA131313541FF8EE1B
:101B040028F8EF3400F9E8245DF582E9121BD35B71
:101B14006003EA801CEE2436121BD0F5F0EA84A898
:101B2400F0EE28F8EF3400F9E82438F582E9121BC6
:101B3400D3F97F0402186774F51217BBEAFEEBFFB2
:101B4400EE2434121BD0C0E0EE2435F582EF3400CD
:101B5400F583D0E0F08E828F83A3A3A3A3A3E0FA3E
:101B6400A3E0FB8E828F83A3A3A3A3A3A3A3E0FC80
:101B7400A3E0FDECC39AF50AED9BF50BEE247FF58B
:101B840008EF3400F509850882F583E06401702BC1
:101B9400EE2480F582EF3400F583121979121BD9F3
:101BA400740212170EE960137CDC7D04EEFAEFFB7D
:101BB400120B91850882850983E4F0AC0AAD0BEE23
:101BC400FAEFFB121AA41223FF021B36F582EF343C
:101BD40000F583E022C082C083851882851983E0E2
:101BE400F8A3E0F9C3EA9CEB9D5010C3EC98ED997F
:101BF400401BC3EA98EB995014800EC3EA98EB9902
:101C04004007C3EC98ED994004790180027900D033
:101C140083D08222EAC39CFAEB9DFB2274ED121757
:101C2400BB9003A2E064086005E06407702C906137
:101C3400C8E060269003D0E0F874FF68601CE87583
:101C4400F003A4C8AAF02AF974D228FE740339FF59
:101C54008E828F83A3A3A3E070057900021DC0EEDA
:101C64002468F510EF3400F511906060E08510826F
:101C7400851183F0750A45750B0575080075090013
:101C8400E5D914F50EE5D95403F50F601CEE248252
:101C9400F50CEF3400F50D7403650F6058E50E6024
:101CA40013EE2467121BD0700B793DEEFAEFFB1292
:101CB4000BB580A6900540E064016026850C828502
:101CC4000D83E06004780480027800850E08E5083E
:101CD400C398FA95E0FB120A358A088B09EA45098C
:101CE4007006120E0D021C5E850C82850D83E07059
:101CF400048A0A8B0B78008016E5D9C0E08812E5C7
:101D04000A2512F582E50B3400F583D0E0F008E8EB
:101D1400C3950E40E4850C82850D83E0602874FC35
:101D2400250EF50E780A121962AC0EA90FEEFAEF21
:101D3400FB120C63740212170EE9700AAA08AB09AD
:101D44001212A5021CAD7403650F6058850E0C7544
:101D54000D00780C121962AC0AAD0BAA08AB09127B
:101D64000C27740212170E851082851183E0F87413
:101D740080687005750C7F8002880CE50CF50A7884
:101D84000A121966E50FF50A780A121966A90EAC4B
:101D940008AD099003D0E0FA7B001208CD7402125A
:101DA400170E80139003A2E06408600BAC0AAD0B1D
:101DB400EEFAEFFB120CF9120E1979017F0C0218DE
:101DC4006774F31217BB74FC1216F8EAFEEBFF8972
:101DD40008A2AFE433F509C2AFEE2463F50AEF3489
:101DE40000F50B8010AA0AAB0B120BDF1212A590A0
:101DF40004E3E004F0850A82850B83E0F8A3E0F9AC
:101E0400E849602FE82402FAE93400FBEA2402F5E9
:101E14000CEB3400F50D780C1219628A828B83E086
:101E2400FCA3E0F9EEFAEFFB120BD3740212170EC7
:101E3400E960B29004E3E060579004E4E0F89004B1
:101E4400E3E0C398500C7402650870449004E5E024
:101E5400603E8E828F83A3A3A3A3E0851882851995
:101E640083121EA47402121743E8121EA49004E203
:101E7400E028F07402121743AC82AD838518828582
:101E84001983AA82AB8379011208D99004E3E4F0A0
:101E9400E509A2E092AF740412170E7F06021867D8
:101EA400F0A3E4F09004E3E0F822000085218785A4
:101EB40022C622C0E074EF1218A7A2AFE433FEC218
:101EC400AF759B00906182E0A2E05012E591A2E020
:101ED400500C7591FE740165217003121C20E0A260
:101EE400E55051E591A2E5504B7591DF9003A2E0D6
:101EF40064076005E0640870237401652170357916
:101F0400019003D0E0FA75F003A4CAA8F028FB748A
:101F1400D22AFA74033BFB121DC58018E0640D70CD
:101F2400139003C4E004F064287002E4F07A00E043
:101F3400F9120E1F906182E0A2E64003021FDEE563
:101F440091A2E64003021FDE7591BF9003A2E064F4
:101F5400057008120D3B120D478003120D417521C7
:101F640000120DADE99003A3F07900120DA1120A3D
:101F7400FB7A017B009003A1E0F9121077907803BB
:101F8400E064427055900544E014F0704DC2AF1205
:101F94001F9600782AD0E0F618D0E0F6E59F5407A3
:101FA40070057509FF800375097FC4C0E07829E6D0
:101FB400F50808E65509F509740B78081216D6D009
:101FC400E02508F8906270E0A2E740F8E8C3339097
:101FD4006272F0906270E0D2E0F0906181E0A2E37E
:101FE4005009E5E9A2E3500375E9F7A3E0A2E7503D
:101FF40009E591A2E7500375917FEEA2E092AF7FCD
:1020040004021906C0E0C0D0C082C083906183E09E
:10201400A2E05009E5BFA2E0500375BFFEE0A2E1D3
:102024005009E5BFA2E1500375BFFDE0A2E25009EB
:10203400E5BFA2E2500375BFFBE0A2E35009E5BF90
:10204400A2E3500375BFF7E0A2E45009E5BFA2E4A0
:10205400500375BFEFE0A2E55009E5BFA2E55003C8
:1020640075BFDFE0A2E65009E5BFA2E6500375BFE5
:10207400BFD083D082D0D0D0E032C0E074F2121846
:10208400A7E5A7A2E4500FE5A1A2E4500953A7EFE6
:1020940075A1EF1220D2E5A7A2E5500CE5A1A2E5B7
:1020A400500653A7DF75A1DFE5A7A2E15009E5A11A
:1020B400A2E1500375A1FDE5A7A2E2500CE5A1A29F
:1020C400E2500653A7FB75A1FB7F0102190674F8C1
:1020D4001217BB7521019003A2E0640670077A0011
:1020E4007B00120D23A2AFE433FED2AF9003A8E02D
:1020F400640170187A207B009003A1E0F91210FBB0
:102104007A207B009003A1E0F912107D906182E0B7
:10211400D2E6F0900541E0602185C6228016900346
:10212400A7E064017008E5C654F84405F5C653BE3B
:10213400FC121EB07401652160E4EEA2E092AF7F50
:10214400010218678E238F248582288583278518AA
:1021540082851983E0CEA3E0CF852882852783EB8F
:10216400C9EAC8EDCBECCA75F010C3E833C8E9334B
:10217400C9EA33CAEB33CBC3EA9EF526EB9FF525B8
:10218400B35004AB25AA26EC33CCED33CDD5F0DA2D
:10219400AE23AF242274F11217BB8A088B098C0A70
:1021A4008D0B90900778081215A2740F12174378BC
:1021B4000C1215C8909007780C1215A27808790CA7
:1021C4001213DA90902B50107808790C12157A7843
:1021D400081213FA4014800E780C790812157A78D4
:1021E4000C1213FA50047901800279007F08021856
:1021F4006774ED1217BB8A088B098C0A8D0B9090BB
:102204000778081215A27413121743780C1215C814
:10221400909007780C1215A2780C79081213DA4002
:10222400117808790C12157AAA08AB09AC0AAD0B1F
:102234008022751000751100751200751301781055
:10224400790C12157A78107908121541AA10AB117D
:10225400AC12AD137F0C0218679090077808121522
:10226400C88A828B8378081215B57F0402186774B4
:10227400F51217BB8C828D8378081215C88A828B5D
:1022840083780812158E1222C7C3E098F0A3E09950
:102294001222B9401E90901B78081215C88A828BAE
:1022A4008378081215678E828F83E02420F0A3E0E0
:1022B400344EF080A4F08E828F83C3E09420A3E098
:1022C400944E22EA2404F8EB3400F9E8FEE9FF8C8A
:1022D400828D83A3A3A3A3E0F8A3E0F98E828F8366
:1022E4002274F51217BBE9FE9004F7E0FAA3E0FBB1
:1022F400EEC333F8E433F9741028F582748F39F59A
:1023040083E02AF508A3E03BF509780812196290E6
:1023140090571215E6122148740212170E8A088B80
:10232400098C0A8D0B74107808121509AA08AB09D8
:102334007F0402186774F11217BB8A0C8B0D8C0E84
:102344008D0F740F121743E0FAA3E0FB74111217F8
:1023540043E0F508A3E0F5097808121962EA2401BC
:10236400F508EB3400F509E4F50AF50B780C790867
:10237400121419908FFF78081215C8780C79081276
:102384001419AA0CAB0DAC0EAD0F12214874021235
:10239400170E8B09EA450960047A0180027A00EC81
:1023A4002AFCED3400FD7413121743E0F8A3E0F99E
:1023B400E8FEE9FFECF8EDF97A717B0212166D88FC
:1023C400088909E4F50AF50B8E828F8378081215C3
:1023D400D7ECF8EDF97A717B0212166D8A088B0935
:1023E400740578081216E58E828F83A3A3A3A3E550
:1023F40008F0A3E509F07F08021867C082C083E9EA
:10240400906000F0D083D08222C2AF02000022C0CC
:10241400E074F21218A7A2AFE433FED2AFE589A2AA
:10242400E1500312124B758900C2C5EEA2E092AFCF
:102434007F01021906C0E074F21218A7A2AFE433B8
:10244400FED2AFE58BA2E0500312124B758B00C293
:10245400E880D8C0E0C0D0E8C0E0E9C0E0E5A8D298
:10246400AFC2C7A2E7A2E792AFD0E0F9D0E0F8D0BC
:10247400D0D0E032FFFFFFFFFFFFFFFFC082C08329
:10248400E99009E5F002270F74F712174FE990025B
:10249400E1F07C197D037AFF7BFF12081F9002E2B2
:1024A40074FFF0A3F0A3E4F0A3F079051207A7905A
:1024B40002E1E0F91206C97A3D7B081209E77F01BF
:1024C40002182174F412174F8A088B09EB548060A8
:1024D400309002E1E0F912105F8A0A8B0BAE0AAF6A
:1024E4000BEE4F60138E828F83E064B0700312078B
:1024F400BFEEFAEFFB12104DAA08E5096480FB80D9
:10250400047A007B000226DE74F212174F74FC1268
:1025140016F8EAFEEBFFEE4F60387402121743EE32
:10252400F0A3EF122943ECF0A3ED122943AA82ABE6
:10253400831206C3E9F50870737412121743123438
:10254400F7E50A450B60658E828F831225BAEE4F3C
:10255400700575080280557A067B001210B38A0C48
:102564008B0DA80CA90DE8497005750813803D88EA
:10257400828983E41225C4A3A3EEF0A3EF12399059
:10258400E50AF0A3E50BF09002E712264C9002E76F
:102594006017E0FCA3E08003EAFCEBFD8C828D83F2
:1025A40012264C70F38C828D8312341CA908740497
:1025B40012170E023B92A3A3A3A3E0FEA3E0FF2203
:1025C400F0A3F0888289832274F212174F890AE9F2
:1025D40075F017A4FEAFF09002E6E4F09002E41266
:1025E400264C600A1210B99002E4E4F0A3F0EEFA6B
:1025F400EFFB1210B38A088B09EA4509602FEEFC41
:10260400EFFD79001210359002E4E508F0A3E50926
:10261400F07B008008122636E4F0A3F00BEBC395A0
:102624000A40F2E50A9002E6F0790080027913028A
:102634003B92EB75F017A4F8A9F09002E4E028FAB5
:10264400A3E0398A82F583221231B2EA4B2274F470
:1026540012174F750800750900740C1217431239CC
:1026640064FEE9FF800CE5082401F508E50934005F
:10267400F509C3E5089CE5099D503285080A8509DA
:102684000B7403780A1216E5EA250AF8EB350BF900
:1026940088828983A3A3A3A3A3A31234F7EE650AB4
:1026A4007003EF650B70BFE8FAE9FB80047A007BE6
:1026B40000802774F412174F7900EAA2E0501B75CA
:1026C40008C275098F78081219627C047D007AE7C4
:1026D4007B091207A1740212170E7F04021821C08D
:1026E40082C0839002E7122716601C88828983A324
:1026F400A3E06A7003A3E06B8882898370E8A3A3D4
:10270400A3A31231AE80047A007B00D083D082026E
:102714000122123C65E8492274EE12174F74FC1230
:1027240016F8EAFEEBFF851882851983E4F0A3F01E
:10273400EE2402123400EE2405122931EE2404F5AD
:102744000EEF122D16E024FE603924FC604624FEB0
:10275400605224FE605E24FE700302283624FE705C
:10276400030228AE24FE70030228BD24FE70030277
:1027740028CC24FC70030228DB24FE70030228EA20
:102784000229279003007417F0A3E412294B1204C2
:1027940041022927851882851983AC82AD831207EB
:1027A400C50228F7851882851983AC82AD83120788
:1027B400CB0228F7850C08850D097402121743AC67
:1027C40082AD838508828509831231AE1206E78AB9
:1027D4000C8B0DAC0CAD0DEC4D6042E4F50CF50D1D
:1027E400780C121962750C00750D03780C121962BD
:1027F400750C01750D03780C1219627408121743D5
:1028040012197979161231A8120807740812170ED2
:10281400E9F50C700B1231A4120459800F750C01E8
:1028240085088285098312293912341C850C080213
:1028340028FA7402121743AC82AD83850C82850D8D
:10284400831231AE1206E78A108B11AC10AD11EC75
:102854004D6043850C82850D83A3A31219797510ED
:10286400007511037810121962751001751103783F
:102874001012196274081217431219797916123159
:10288400A8120807740812170EE9F509700B123123
:10289400A412045F800F750901850C82850D8312D3
:1028A400293912341C850908804C851882851983BE
:1028B400AC82AD831207D1803A851882851983AC26
:1028C40082AD831207D7802B851882851983AC8249
:1028D400AD831207DD801C851882851983AC82AD17
:1028E400831207E3800D851882851983AC82AD833A
:1028F4001207E9E9F508E50860298E828F83A3E0D1
:102904006414601F850E82850F83E09003001229F2
:1029140043123C6190030112341CE508A312294BB5
:1029240012043BEEFAEFFB120765023308F50CEFD5
:102934003400F50D22123C6585188285198322F036
:1029440085188285198322F07C007D03850A82859F
:102954000B831231B22274EE12174F74FC1216F864
:102964008A0A8B0B8C0E8D0FEA2405F508EB3400D4
:10297400F5097C157D0079007A007B03121035E59A
:10298400082402F50CE50912293485188285198377
:102994008582108583117810121962850882850951
:1029A40083A3A3A3A3122E5E121962E5082405F5DE
:1029B40010E5093400F5117810121962850C82852E
:1029C4000D831231B81206E1740612170E8A108BA9
:1029D40011AE10AF11E50A2402F50AE50B12340317
:1029E400EE4F7003022B208017740212174312312A
:1029F400AE88828983EAF0A3EBF0900300E004F050
:102A0400900300E0C394054003022B20E4F510F585
:102A14001178101219627510E975110278101219E3
:102A2400627510EA75110278101219627406121791
:102A3400431219797910EEFCEFFD1231A812080740
:102A4400740812170EE9705E850882850983A3A3B2
:102A5400A3A3A3A3A3E0F89002E9E0687048122EB0
:102A64005E1219627CEA7D02E5082408FAE509345D
:102A740000FB12102F740212170EE960298E828F48
:102A840083A3A3A3A31231AE900300E0F510740254
:102A940078101216E574012510F58274033511F5CA
:102AA40083EAF0A3EBF07402121743858210858346
:102AB4001178101219627402121743121979850CD5
:102AC40082850D83123C761206ED740412170E8A69
:102AD400108B11AE10AF11900300E0F510751100CA
:102AE400740278101216E574002510F87403351179
:102AF400F988828983A312264C70030229E4E8240E
:102B040003F8E93400F9EE4F60030229ED88828965
:102B14008374FFF0A3F0900300E004F0900300E05E
:102B2400600A1231A412044D7900800B8508828555
:102B34000983123413790A02330874EA12174F74A2
:102B4400FE1216F88C128D13EA2405F50CEB123DD7
:102B5400E01225BE750800750900EA2402F510EBA1
:102B64003400F51185188285198385820A85830BC3
:102B7400780A121962850C82850D83A3A3A3A3127C
:102B84002D20121962E50C2405F50AE50D12340313
:102B9400780A121962850C82850D83123C74120620
:102BA400E1740612170E8A0A8B0BEA450B700302B6
:102BB4002CD1EA2404F50EEB122D161225BE8A82BE
:102BC4008B83A3A3A3E0F98510828511831231AE10
:102BD4001206CFE9F5096003022CD1E4F514F515CA
:102BE40078141219627514E97515027814121962B1
:102BF4007514EA75150278141219627406121743D3
:102C04001219797913AC0AAD0B85108285118312E0
:102C140031AE120807740812170EE9F509600302B1
:102C24002CD19002E9E0F8E5087009E02402900351
:102C340001F08017900301E0FCE82402FAE4340078
:102C4400FBEA6C7001EB6003022CD5850882AA8232
:102C5400122E559414122E4D5073850E82850F83B7
:102C6400E0C0E074022A122D0DD0E0F00508850EB4
:102C740082850F83A3E0C0E085080A7402250A1246
:102C84002D0DD0E0F005089002E9122D20121962F2
:102C94007CEA7D0285080A7402250AFA740334006A
:102CA400FB12101D740212170E9002E9E02508F5BC
:102CB4000874FF6E700374FF6F6012EE24010EEF50
:102CC4003400FFE508C394145003022B68E5086040
:102CD400131230998510828511831231AE12045378
:102CE40079008014E509700375090A851282851339
:102CF40083EEF0A3EFF0A909740212170E7F0E02FF
:102D0400182185080C7402250CF58274033400F52F
:102D140083223400F50F850E82F583221239A32213
:102D240074EE12174F74FE1216F88C0E8D0FEA24EF
:102D340005F50CEB122934750B00900300E4F0F553
:102D44000AEA2402F508EB3400F5098049900300EF
:102D5400E0FA9002E9E0F8122E559417122E4D4035
:102D64000D900300E0F87416C3989002E9F0122E57
:102D74005E1219627CEA7D0274012AFA740334003B
:102D8400FB12101D740212170E9002E9E0F8900372
:102D940000E028F0050AE50C2416F582E50D122D55
:102DA40011E0F8E50AC3984003022E36900300E0D0
:102DB400C39416507DE50AC333F8E433F9E50C28CF
:102DC400FEE50D39FF851882851983AC82AD838EAB
:102DD400828F831231AE1206E78A108B11AC10ADCC
:102DE40011EC4D7005750B018043E4F510F5117875
:102DF400101219627510E9751102781012196275B2
:102E040010EA75110278101219627406121743122F
:102E1400197979168508828509831231AE1208075B
:102E2400740812170EE9F50B7003022D5112340FBA
:102E340080107C007D038508828509831231AE12DF
:102E44000465A90B740202330AE99400C365D03304
:102E540022EA28F8E43400F9E822E0F510751100BC
:102E640078102274EA12174F74FC1216F88A0C8B2D
:102E74000D8C128D13EA2405F50AEB123403750840
:102E840000750900E50A2402F510E50B3400F5117C
:102E9400740212174385820E85830F780E1219620D
:102EA400850A82850B83A3A3A3A312394F12196247
:102EB400E50A2405F50EE50B3400F50F780E12191A
:102EC400628510828511831234091231A81206E139
:102ED400740612170E8A0E8B0FAE0EAF0FE50C247C
:102EE40002F50EE50D3400F50F8040888289837465
:102EF400FFF00508122D0674FFF005089002E9E0C2
:102F0400F50C750D00780C1219627CEA7D028508B7
:102F14000C7402250CFA74033400FB12101D7402A5
:102F240012170E9002E9E02508F508EE4F60718E45
:102F3400828F83A3A3A3E0F9850E82850F831231C8
:102F4400AE1206CFE9F509EE2404122931E97044E2
:102F5400E4F514F51578141219627514E97515025F
:102F640078141219627514EA75150278141219622C
:102F740074081217431219797911EEFCEFFD850ECE
:102F840082850F831231AE120807740812170EE9F6
:102F9400F5096027850C82850D8312308F12341C4D
:102FA400E5087003023075123099850E82850F830F
:102FB4001231AE12046B790002308A850882AA822B
:102FC400EA9002E97009E02404900301F08022E011
:102FD400F8900301E0F514E82404FCE43400FDEC6B
:102FE40065147001ED70C0122E559412122E4D50BE
:102FF400B6850C82850D83E0C0E074022A122D0D83
:10300400D0E0F00508850C82850D83A3E0C0E012B2
:103014002D06D0E01230AB85820C85830D780C121E
:103024001962740412174312197985108285118369
:10303400123C761206ED740412170E8A0C8B0DAE38
:103044000CAF0D85080C7402250CF874033400F9D8
:10305400EE4F7003022EEF851882851983E0888273
:1030640089831230ABA3E0C0E0122D06D0E0022E1B
:10307400FDE509700375090A850A82850B83123000
:103084008F12341CA9097404022CFE123C658512AB
:103094008285138322900301E0F5F0E50884900310
:1030A40000F07C007D0322F00508851882851983D1
:1030B4002274EC12174F74FE1216F88A088B098CCE
:1030C4000E8D0FEA2405FEEB3400FF851882851966
:1030D40083AC82AD838E828F831231AE1206E78A6F
:1030E4000A8B0BEE2418122931EA450B70030231C6
:1030F4007F1232F150328518828519831231AE1253
:1031040007FB8A108B11EA4511606B7912AC0AAD8A
:103114000B8508828509831231AE8510828511835F
:1031240012174DE9F50A7058E4F50AF50B780A12FE
:1031340019628E828F83A3A3E0F50A780A121962BA
:10314400EE2403123400780A1219628E828F8312DD
:1031540031B812080D740612170EE9F50A702185AC
:103164000C82850D83E0701F8508828509831231E6
:10317400AE1204718011750A0E8009750A0180046B
:10318400E50A600312340F850C82850D83E0600428
:1031940079008002A90A740212170E7F0C0218210A
:1031A4007C007D03850A82850B831231B222E0FA0A
:1031B400A3E0FB22E0FCA3E0FD85088285098312DD
:1031C40031B22274EE12174F74FE1216F88A088B6D
:1031D400098C0C8D0DEA2405FEEB3400FF750E00FE
:1031E400851882851983AC82AD838E828F831231D8
:1031F400AE1206E78A0A8B0BEA450B70030232DD36
:103204001232F150358518828519831231AE1207B6
:10321400FB8A0E8B0FEA450F605E7912AC0AAD0B88
:103224008508828509831231AE850E82850F83124B
:10323400174DE9F50E60030232E0850882850983A3
:103244001234F7AA0AFB1207EF8A108B11A810A9EF
:1032540011E849701E7AFF7BFF1207EF8A108B1169
:10326400A810A911E849606C88828983E50AF0A353
:10327400E50BF0750A008007750E0E805F050A9055
:1032840002E6E0FAE50AC39A504AE50A75F017A483
:10329400FAABF088828983A3A3E02AFAA3E03BFB7C
:1032A4008A828B83123409EC4D70D2750A17750B20
:1032B40000780A121962EEFCEFFD12101D7402125E
:1032C400170EEEFCEFFD8508828509831231AE12DC
:1032D40004778014750E098003750E01123C5D8518
:1032E4000C82850D8312341CA90E022E48E5082495
:1032F40002F508E5093400F5098A828B83A3A3A3A8
:10330400E0A2E522740412170E7F0A02182174EC5D
:1033140012174F8C108D11EA2405F50CEB12293489
:10332400750F00EA2402F50AEB123403850A82F5CC
:10333400831231AE1207EF8A088B09EA450970033C
:103344000233F5750E008071850C82850D83E0646F
:1033540001704F8E828F83A3A31219798E828F837B
:10336400A3A3A3A3E0F5127513007812121962EE59
:103374002405F512EF3400F5137812121962123194
:10338400A812080D740612170EE9F50F6014850CC7
:1033940082850D83E4F0123C5D85108285118312D1
:1033A400341C7C177D007900EEFAEFFB1210358E89
:1033B400828F83E4F0A3F0050E9002E6E0F8E50EB8
:1033C400C398501EE50E75F017A4F8A9F08508827D
:1033D400850983A3A3123DEA123409EC4D6003026C
:1033E400334C85088285098374FFF0A3F0E50F70E0
:1033F400061231A812047DA90F02319FF50AEF3499
:1034040000F50B22A3E0FCA3E0FD228E828F831241
:103414003C65850E82850F83E8F0A3E9F022C08223
:10342400C0839002E2E06A7003A3E06B70067AE264
:103434007B0280047A007B0002270FC082C083785D
:10344400008C828D83E06A7003A3E06B7010E875D2
:10345400F003A4F8A9F0EC28FAED39FB8015088CE8
:10346400828D83A3A3A3E06A7003A3E06B60DF7A79
:10347400007B0002270F74F612174F1207B98A82D5
:103484008B83E582458370067A007B008007A3A3C3
:10349400A3A31231AE023B0E74F212174FE9FE746D
:1034A4000E1217431234F7741012174312396F8C2B
:1034B400828D83E064027036A3123C6BF50CA3E0AA
:1034C400F9A80C74026870037429697021750C02E0
:1034D400750D00780C1219627808121962780A12B4
:1034E4001962EEF9120831740612170E800279017E
:1034F400023B92E0F50AA3E0F50B2274E812174FA1
:1035040074FB1216F8E9851882851983F08A168BE4
:1035140017ECFEEDFF751000741D121743123C6189
:10352400741D12174312341C8E828F83A3A3A3E04D
:10353400A2E4502D741D1217431231AE1207FB8AF8
:10354400828B83E58245837003023940790AEEFC5D
:10355400EFFDAA16AB1712174DE9F51060030239F7
:1035640043741F12174312396F7421121743123414
:10357400F77423121743E0F50EA3E0F50F8E828F44
:1035840083E0640260030238EEA3123C6185088282
:10359400850983A3858212858313EE2406122931BB
:1035A40088828983E0FAA3E0F9EA2400F514E43977
:1035B400F51578141219EC010000280128E33507E9
:1035C400000228A836032815360029DF3701290A06
:1035D400380229AB370329DF3704298938EE38E567
:1035E4000E450F60030238E9850C82850D8312397C
:1035F40064FAE9FB8A828B83E0850A82850B831255
:10360400399A1219628A828B83A3E0FCA3E0023800
:1036140073E50E450F60030238E9850A82850B8342
:103624007401F0123977850882850983F07C007D66
:10363400008E828F83A3A3A3A3E02401FAA3E03422
:1036440000FB1206E7EA4B60418A828B83E0240286
:10365400F8850A82850B83E028F0EA2404F8EB3429
:1036640000F988828983E08512828513831239AC3C
:1036740012399A1219628A828B83123408E508245B
:1036840003FAE5093400FB023878850A82850B8346
:10369400E02404F07C047D007900AA12AB1312101C
:1036A40035023943E50E450F60030238E9123977D4
:1036B400FEA3E0FF850A82850B837404F0EE85087F
:1036C40082850983F0EF851282851383F0740312D7
:1036D4001743AC82AD83EEFAEFFB1206E78A0C8B3C
:1036E4000DEA450D700302378C8A828B83A3A312E3
:1036F40025BA740112174385820E85830F780E1242
:10370400196274051217431219797CFF7DFF1206A2
:10371400ED740412170E8B0FEA450F7033850C827B
:10372400850D8312394F121962850C82850D83A38E
:103734001219797C027D007A787B90120519740441
:1037440012170EE9700A740112174374FFF0A3F004
:103754008E828F83E064027039750C02750D0078D7
:103764000C1219628E828F83123408E5082404FA3D
:10377400E5093400FB12101D740212170E850A822B
:10378400850B83E0240280097401121743EEF0A331
:10379400EFF07401121743123960F07401121743E9
:1037A400A31239580238E3E50E450F60030238E9E5
:1037B400850C82850D83123409AA16AB17120825CD
:1037C400850A82850B837402F0EA85088285098361
:1037D400F0851282851383EB0238E6E50E450F600F
:1037E400030238E9123977F8A3E0F9850A82850BD8
:1037F400837402F0E8850882850983F0E9851282E2
:103804008513830238E6850C82850D831231AE124E
:103814001017EAFC8C82A882C3950EE4950F405FD2
:10382400E8650E7002E50F70047C00802285188222
:10383400851983E0FAE50E2AFAE50F3400FBC3EAA2
:1038440098EB94005003E08005E50ECCC39CFCEC9F
:10385400850A82850B83F08C0A750B00780A12198D
:1038640062850C82850D83E0250EFCA3E0350FFDF7
:10387400AA08AB0912101D740212170E02394375FF
:103884001007023943E50E450F705A850C82850DE9
:1038940083123C61850A82850B8374071225C61244
:1038A40039581225C6A3E0851282851383F0E824D3
:1038B40002FAE93400FB8A828B8312395812398761
:1038C400123960A3123990123969F0E82405F8E935
:1038D4003400F988828983123969A31239ACA3A30D
:1038E400A3A3F0805A75100B8055741D1217431250
:1038F40031AE1207B98A828B83E5824583603D121B
:103904003C61880C890DE8450D6031780E1219620E
:10391400780A12196278081219627406121743E0C1
:10392400F9EEFCEFFDAA16AB17850C82850D831208
:10393400174D740612170EE9F510800375100EA9C1
:1039440010740512170E7F10021821E0F50E750F82
:1039540000780E22E0850882850983221239B62276
:10396400123C65E8221239B6A3A322E0F508A3E0CD
:10397400F50922850C82850D83E0F8A3E0F58388A0
:1039840082E022A3A3F08A828B83A322F088828917
:1039940083A3A3A3A322F08A828B831239A322E0F8
:1039A400F50A750B00780A22F088828983A31239FC
:1039B400B622E0850882850983A3A32274EE121738
:1039C4004F74FE1216F88A0A8B0BECFAEDFB741492
:1039D400121743E0F510A3E0F5117416121743E033
:1039E400FE7418121743E0F50EA3E0F50F85188254
:1039F400851983AC82AD831206E78A0C8B0DEA45E8
:103A04000D60498518828519831231AE1207B98A6F
:103A1400828B83E5824583602FA3A312396FE50867
:103A240045096024780E1219627810121962EEF9B1
:103A3400AC0CAD0DAA0AAB0B85088285098312175D
:103A44004D740412170E8006790E80027901022E3D
:103A54004874F612174F74FE1216F8740C121743BA
:103A6400123964851882851983F07401121743E9A9
:103A7400F0E4F508F5097808121962750802780867
:103A84001219627404121743858208858309780821
:103A940012196212080D740612170E740212170E10
:103AA400806874F712174FEAFEEBFF89087C197DD2
:103AB40003120825EA5402600BA908EEFAEFFB1280
:103AC40006DB800279010224C274F612174F74FFD8
:103AD4006A700374FF6B70168C828D83123B13E43F
:103AE400F08C828D83A3A3A3123B13A38018120727
:103AF400F58A088B09A808A909E849600D88828914
:103B04008374FF1225C4A3A3E4F07F020218217476
:103B1400FFF0A3F08C828D83A3A32274F612174FB7
:103B24001207F58A828B83E58245836006A3A3E0AE
:103B3400FA80027A007B0080D174F212174F8A084F
:103B44008B09ECFEEDFF740E121743E0F50A120721
:103B5400F58A0C8B0DA80CA90DE8497026EEFCEF34
:103B6400FD7AFF7BFF1207F58A0C8B0DA80CA90DBB
:103B7400E84970047911801688828983E508F0A3E6
:103B8400E509F088828983A3A3E50AF079007F061A
:103B940002182174EE12174FEAFEEBFF8C088D0910
:103BA400890C7414121743123C61741612174312D1
:103BB40031AE750D00E8496003023C557402650C92
:103BC4006003023C507412121743123C6BFCA3E0D6
:103BD400F9EC2400F50EE439F50FEAF4F8EBF4F906
:103BE400EC58F8E50F59F9E849705CE5082406F843
:103BF400ED3400F9880A890B8882F583123C761229
:103C040008258A108B11E50E65107004E50F651107
:103C14006042780E121962850A82850B83123C7603
:103C240012082B740212170EE9F50D7027780E1284
:103C34001962850882850983A3A3123C7412084380
:103C4400740212170E800D750D808008750D0D809D
:103C540003750D0BA90D02330D8E828F83123C6503
:103C640022E0F8A3E0F922123C6588828983E022ED
:103C7400A3A3E0FCA3E0FDEEFAEFFB2274E8121725
:103C84004F74E71216F8851882851983EAF0A3EBBE
:103C9400F08C168D17890E750800750900743112A1
:103CA4001743E0F512A3E0F5137433121743E0F55C
:103CB40014A3E0F5157435121743E0F50FE5097503
:103CC400F003A4F8A9F0851882851983123DEAE06F
:103CD400F47003A3E0F47003023DCDEE2402F50C6E
:103CE400EF123DE0E07003023DCD85160A85170B07
:103CF400780A121962AC14AD15AA12AB131207ADEF
:103D0400740212170E8A0A8B0BEA450B7003023DEC
:103D1400CDE4F510F51178101219627406121743E8
:103D24008582108583117810121962740912174361
:103D34008582108583117810121962851282851389
:103D440083A3A3A3A31219797914AC0AAD0B8E82B1
:103D54008F831231AE120807740812170EE97069C6
:103D6400850A82850B83A3A3A3A3123C6174021268
:103D7400174312341C850C82850D83E0A2E0501891
:103D8400A90E7402121743AC82AD838E828F831204
:103D940031AE1206FFE94208850C82850D83E0A24C
:103DA400E15026E50FF50A780A121966A90E740384
:103DB400121743AC82AD838E828F831231AE12060A
:103DC400F9740112170EE942080509E509C39402C2
:103DD4005003023CC1A90874190239473400F50D97
:103DE400850C82F58322E028FEA3E039FF8E828FC2
:103DF400832274F212174FEAFEEBFF890B740165FC
:103E04000B600E7402650B706A7901120A05E97081
:103E140062EEFAEFFB1207EF8A088B09EA450960A4
:103E240047750A00800B7C177D0079001210350558
:103E34000A9002E6E0F8E50AC3985021E50A75F015
:103E440017A4F8A9F0850882850983A3A3E028FABA
:103E5400A3E039FB8A828B8312271670C9850882F6
:103E640085098374FFF0A3F07C197D03EEFAEFFB60
:103E740012081F023B9274F212174F8A088B09EC46
:103E8400FEEDFF740E1217431234F79009E5E0F4C7
:103E9400603D7A097B00121047EA4B60328A828BBC
:103EA4008374B1F0A3E4123989A3123987A3E50816
:103EB400F0A3E509123ED6EEF0A3EF123ED6A3A37B
:103EC400E50AF0A3E50BF09009E5E0F912105302BE
:103ED4003B92F08A828B83A3A3A3A3A32274F01240
:103EE400174F74FA1216F8890BECFEEDFF750A00F1
:103EF4008A088B0978081219A60004101441243F7B
:103F0400423F5C3F743F923FAA3FCD3FE53FF93FBC
:103F14002340AB40BC40D340EE40144114413940EF
:103F24007401650B600302410F8E828F83E0F8C336
:103F34009403400302410FE8900AD10240EB74025B
:103F4400650B600302410F8E828F83124811900A21
:103F5400D2E8F0A3E90240EB7401650B600302416F
:103F64000F12413C400302410FE89007660240EB08
:103F74007401650B600302410F8E828F83E0F8C3E6
:103F84009405400302410FE89007670240EB740177
:103F9400650B600302410F12413C400302410FE8EC
:103FA4009007680240EB7410650B600302410F75C3
:103FB400081075090078081219627A697B071210D3
:103FC4001D740212170E0241357401650B60030261
:103FD400410F12413C400302410FE890077902402F
:103FE400EB7401650B600302410F8E828F83E090B6
:103FF4000AD50240EB7404650B600302410F8E8204
:104004008F83780C1215C8909057780C1213FA50BD
:104014000302410F90077B780C1215D7024135E952
:10402400600302410F120687E970051211A980602E
:1040340090080E806E7407650B600302410F7508CB
:104044000675090078081219628E828F83A3AC82E8
:10405400AD837402121743AA82AB83121023740235
:1040640012170E7C007D00851882851983AA82AB05
:10407400838E828F83E0F912114FE9F508C3940A05
:104084004003024132120687E9700CA9081211AFED
:104094007950121323806F740F2508F58274083445
:1040A40000F583740180407401650B705E12413C1D
:1040B4005059E890077A802F7401650B704D8E82F9
:1040C4008F83E0F8C3940A5042E8900AD4801874AD
:1040D40001650B70368E828F83E0F874F928C394DF
:1040E4000A5028E8900AD6F080477401650B701BCB
:1040F40090080DE0F88E828F83E090080DF0E87050
:1041040030E06401702B12119D8026750A188021FD
:10411400C3EA9427EB940050157402650B700F8E5C
:10412400828F83124C10120525E9F50A8003750A63
:1041340002A90A74060248068E828F83E0F8C394AB
:10414400022274F012174F74CC1216F88C0A8D0BDD
:104154007420121743AC82AD8375838F7582E0742B
:104164000612160B7420121743AC82AD8312114F42
:10417400E9F5087444121743E0FEE9C3940A4003C6
:104184000242B475F006E9A4F5097426121743AC8B
:1041940082AD837A0E74202509F912131DE9700982
:1041A4007432121743E0FF80027F00900AD1E0646A
:1041B40002700474018001E4F50D780D121966EEA5
:1041C400FDEFFCA908AA0AAB0B1211D37401121754
:1041D4000E7C147D007900740C121743AA82AB8301
:1041E400121035740C121743AC82AD837A10742408
:1041F4002509F912131DE9703C7C1079FF740C1227
:104204001743AA82AB8312109BE97029741C1217FE
:1042140043AC82AD837A0474252509F912131D7405
:104224000C121743AC82AD83EFA2E0E433F9AA0A7F
:10423400AB0B1205AF851882851983AC82AD837AE6
:104244000C74702508F912131DE9705385188285C2
:104254001983AA82AB8312117F750800E50875F0F3
:1042640003A4F8A9F0851882851983E58228F8E566
:1042740083124A1A124C0A601D88828983A3A3E020
:10428400F50E750F00780E121962AA0AAB0B12080C
:1042940013740212170E0508E508C3940440BDEF19
:1042A400A2E1500C900765E0F9AA0AAB0B120819B9
:1042B40074046E7027900AD1E06402701F7A009033
:1042C4000779E060010A900766E0600478048002E0
:1042D4007800E84AF9AA0AAB0B12066F7900743425
:1042E40002480674F012174FEAFEEBFF8C088D09A2
:1042F400750A0AE9600C14600914603714607902C5
:104304004396121191E9F50AC3940A4003024396B5
:10431400E5084509607C750E06750F00780E1219C4
:1043240062EEFCEFFDAA08AB0912101D740212170D
:104334000E805F750B00750E06750F00780E12194E
:1043440062EEFCEFFDE50B75F00EA4F8A9F074879E
:1043540028FA740739FB12102F740212170EE96041
:104364000C850B0AE50AC3940A50278016050BE551
:104374000BC3940A501C80BE121197E9F50AC3942A
:104384000A500FE50845096009AA08AB09A90A12F1
:10439400118BA90A02480974F412174F8908750988
:1043A4001574FF6A700374FF6B70277E00AC087A83
:1043B400027B00EEF912116DE960037509000EEE3F
:1043C400C3940A40E8E50860537AC17B11120A17C6
:1043D400804A1209F98A0A8B0BAE0AAF0BEE4F60C2
:1043E400387C007D00EE2405FAEF3400FB8E828FCA
:1043F40083A3A3A3A3E0F912114FE9C3940A500CB9
:10440400AC087A027B0012116D750900E508600C96
:10441400EEFAEFFB1211C18003750914A909800596
:10442400740E12170E7F0402182174F212174FEC47
:10443400FEEDFF750815740E121743E0F50AA3E0AC
:10444400F50B74FF6A700374FF6B7021750900AC7F
:104454000AAD0BEEFAEFFBA909121173E9600375BB
:1044640008000509E509C3940A503F80E21209F9DE
:104474008A828B83E5824583602D7C007D00E58202
:104484002405FAE5833400FBA3A3A3A3E0F91211E6
:104494004FE9C3940A5013AC0AAD0BEEFAEFFB12CA
:1044A40011737508008003750814A90802524CC0E2
:1044B40082C08390077FEAF0A3EBF0900765E0FCED
:1044C4007D007A267B00120525900765E0F9120726
:1044D4008F0250A774F012174F74EC1216F8EAFE0C
:1044E400EBFFEE240CF50CEF3400F50DEE2405F58E
:1044F4000EEF3400F50FEE2409F50AEF3400F50B46
:10450400EE2403F508EF3400F5098E828F83A3A30C
:10451400E024FA70030247AA24FD70030246C5147E
:1045240070030245B114601024FD700302469C140C
:1045340070030246F90248021254476048E0F583CA
:104544008882124811880E890FE8450F6037850C60
:1045540082850D83E0F50C780C121966EE240BF5B8
:1045640082EF1249E1F9850A82850B83124C100A05
:104574000A0AAB09850E82850F8312174D74011246
:10458400170E024802850A82850B83121979900757
:104594007B1215E61205C1740212170EE9700302AC
:1045A40048027901850A82850B830247758E828FC2
:1045B40083A385820A85830BE0600302467F850E10
:1045C40082850F83E0A2E0400302467F900819121F
:1045D400544A600302467F7C0E7D00790085188270
:1045E400851983AA82AB83121035850C82850D83CD
:1045F400125072EA4B6010750C06750D00780C129F
:104604001962EA2410801B12506C1209F9EA4B70EB
:1046140003024802750C06750D00780C121962EA43
:104624002405FCEB3400FD7402121743AA82AB8309
:1046340012101D740212170E850E82850F83E0A2DC
:10464400E25004D2F08002C2F0A2F0E433F8740C19
:10465400121743E048F0EEFCEFFD851882851983BC
:10466400AA82AB83121185E970117A027B0090074C
:1046740065E0F91210777900024804125447700378
:104684000248021248177003024802850A82850B09
:1046940083E0FC790102479E1254477003024802EA
:1046A40012480E890BE8450B70030248028E828F74
:1046B40083A3E0FC790212506C8882850B83024745
:1046C400A57C007D00EE2404FAEF3400FB8508820B
:1046D400850983E0F912114FE9F8C3940A400302F3
:1046E4004802EE240AFCEF124BE6E8A42425F91252
:1046F400131702480212506C90077AE06007900A80
:10470400D4E0F9806F900AD1E070047905806512D5
:1047140009F98A0C8B0DA80CA90DE82404F50CE901
:104724003400F50D8E828F83A3A3A3A3A3A3A3E0D8
:10473400A2E05046E8497003024802850C82850DC8
:1047440083E0FE6035850A82850B83E05410702A6D
:10475400740E121743AC82AD83E82405FAE93400E1
:10476400FBEEF912114FE97011790385088285096E
:10477400831250721205BB024802AC0EAD0F850CB9
:1047840082850D83E0F912506C1211CD12544760EA
:104794006D12481760687C00790012506C8E828F0D
:1047A4008312174D8058120687E9705290080EE064
:1047B400640170151211A990080EE4F07C0AFDF949
:1047C4007A0F7B08121035802D750A00850A08744B
:1047D4000F2508FE74083400FF8E828F83E0640185
:1047E400700BA90A1211AF8E828F83E4F0050AE5DB
:1047F4000AC3940A40D6795012132312119D7901E9
:10480400741412170E7F08021821124826E0F8A328
:10481400E0F922124826E0F8A3E0F9E8FEE9FFEE09
:104824004F22E0F5838882A3A32274F412174F74F5
:10483400F21216F8EAFE8C0B75F006E9A42420F5B2
:1048440008851882851983AC82AD837A0EF9121318
:104854001DE970577C0679FF851882851983AA8221
:10486400AB8312109BE97043740C12174312481166
:10487400E8F509E50B6005EE42098004EEF45209FF
:10488400850982AA82E86A7001E9601B740C121718
:1048940043EAF0A3E4F0851882851983AC82AD83E2
:1048A4007A0EA908121317790180027900024424B0
:1048B40074F212174F74E61216F8890A8A088B09E3
:1048C400ECFEEDFF740C121743AC82AD837A0E75C7
:1048D400F006E9A42420F912131DE960030249D467
:1048E4007C0679FF740C121743AA82AB8312109BC7
:1048F400E960030249D47470250AF50B8518828592
:104904001983AC82AD837A0CF912131DE96003029A
:1049140049D0851882851983AA82AB8312117FE559
:10492400084509702C7C0C7900851882851983AAA6
:1049340082AB8312109BE960030249D07C0C7D009A
:104944007900851882851983AA82AB831210358079
:104954005D851882851983AC82AD83AA08AB0912E0
:1049640011798A0C8B0DA80CA90DE8497028EE4F1B
:10497400605E851882851983AC82AD837A007B00E2
:10498400121179EAF8EBF9EA4B604588828983E5EC
:1049940008F0A3E509F01249DBFAEE6A7001EF6052
:1049A4002BEEF04F700888828983E4F0A3F0851819
:1049B40082851983AA82AB8312117F851882851997
:1049C40083AC82AD837A0CA90B1213177901800290
:1049D4007900741A025249E82402F582E93400F598
:1049E40083E02274F712174F7F00EF75F003A4F8E9
:1049F400A9F0EC28F8ED124A1AE06A7003A3E06B00
:104A04007006E8FAE9FB800B0FEFC3940440DB7AED
:104A1400007B00024DC539F9888289832274F7121C
:104A2400174F7E00EE75F003A4F8A9F0EA28F8EB1E
:104A3400124A1AE0F4FCA3E0F4FD88828983ECF0C6
:104A4400A3EDF01249DBF4F00EEEC3940440D5025A
:104A54004DC574F212174F74F41216F8EAFEEBFF08
:104A64008C088D0990081912544A7051EE4F700346
:104A7400024BDFEC45097003024BDF121191E99000
:104A84000AD7F0C3940A4035750B007C0679FFE51C
:104A94000B75F00EA4FAABF074812AFA74073BFB91
:104AA40012109BE96005850B0A800C050BE50BC30E
:104AB400940A40D7750A0AE50A900AD7F0900AD7F3
:104AC400E0C3940A4003024BDF75F006E0A4FB90B8
:104AD400081912544A706FEEFCEFFD7A0E74202B05
:104AE400F91213177C0C7D0079FF851882851983D0
:104AF400AA82AB83121035851882851983AC82ADE6
:104B0400837A0C900AD7E02470F9121317750C0EEF
:104B1400750D00780C121962EEFCEFFD900AD7E0D7
:104B240075F00EA4F8A9F0748128FA740739FB1201
:104B3400101D740212170E900819E508F0A3E50978
:104B4400F07900024BE1E0C82406124C03601A7AA3
:104B54001B74212BF9121317124BEF2406F582E86C
:104B64003400F583E4F0A380D7124BEF240A124CEF
:104B74000360107A1B74222BF9121317124BEF24C3
:104B84000A80DA124BEF240C124C0360107A107472
:104B9400232BF9121317124BEF240C80C0124BF87D
:104BA400124C03602A7A1074242BF9121317124B37
:104BB400F8F582E81249E12410FCA3E0124BE690D8
:104BC4000AD7E0A42425F9121317124BF8808E900B
:104BD400080DE060031211D91211C77901740C0297
:104BE40052493400FD7A0475F00622900819E0F861
:104BF400A3E0C822900819E0F8A3E0C8240822F52D
:104C040082E83400F583124C10EC4D22E0FCA3E062
:104C1400FD2274F412174F74F21216F8EAFEEBFF39
:104C2400E9C3940A5004EE4F70047902803E85185B
:104C340082851983AC82AD837A0E75F006E9A424CB
:104C440020F912131DE9F5087020750A06750B008A
:104C5400780A1219627402121743AC82AD83EEFA19
:104C6400EFFB12101D740212170EA90802442474DB
:104C7400F412174FEAFEEBFF750800750A06750B70
:104C840000780A121962EEFCEFFDE50875F00EA437
:104C9400F8A9F0748128FA740739FB12102F7402F2
:104CA40012170EE96004A908800B0508E508C394EF
:104CB4000A40C8790A02442974F712174F74F01293
:104CC40016F8EAFEEBFF750800851882851983AC97
:104CD40082AD837A1075F006E508A42423F9121333
:104CE4001DE9702C7C1079FF851882851983AA82AE
:104CF400AB8312109BE97018EEFCEFFD85188285DA
:104D04001983AA82AB83120591E97004A908800B68
:104D14000508E508C3940A40B0790A741012170E06
:104D2400024DC574F712174F750800E50875F00EAB
:104D3400A4F8A9F0748128FE740739FFEEFCEFFD96
:104D44007A0E75F006E508A42420F912131DE96013
:104D54002C7C067D0079FFEEFAEFFB1210357C0601
:104D64007D0079FFEE2406FAEF3400FB121035EED5
:104D7400240CF582EF3400F583E4F0A3F00508E594
:104D840008C3940A40A590080DE060031211D912DB
:104D940011C7802D74F712174F7E007F007C0679AF
:104DA400FFEF75F00EA4FAABF074812AFA74073B96
:104DB400FB12109BE970010E0FEFC3940A40DEEE64
:104DC400F97F0102182174F712174F7E00EEF912D1
:104DD40011AF0EEEC3940A5003E960F180E374F35B
:104DE40012174F74CB1216F8E9FE900AD7E06E70D2
:104DF4001B7A017B00900765E0F912107D7A027B33
:104E040000900765E0F912107D1211E575F006EEC9
:104E1400A4FF74202FF5087427121743AC82AD83C6
:104E24007A0EA90812131DE96003024F1C7C06794F
:104E3400FF7427121743AA82AB8312109BE9600305
:104E4400024F1C7C0E7D0079FF7427121743AA823F
:104E5400AB831210357C1B7D0079FF740C12174351
:104E6400AA82AB831210357C0C7D0079FF851882F1
:104E7400851983AA82AB831210357427121743ACA9
:104E840082AD837A0EA908121317E9F508740C127F
:104E94001743AC82AD837A1B74212FF9121317E9DF
:104EA400F509740C121743AC82AD837A1B74222F5C
:104EB400F9121317E9F50A740C121743AC82AD8387
:104EC4007A1074232FF9121317E9F50B740C1217C7
:104ED40043AC82AD837A1074242FF9121317E9F5C9
:104EE4000C740C121743AC82AD837A0474252FF929
:104EF400121317E9FF851882851983AC82AD837A72
:104F04000C74702EF9121317E9F8E509450A450BDC
:104F1400450C4F4842088003750800A908743512EF
:104F2400170E7F0502182174F712174FE9900765D1
:104F3400F012119D024DC574F412174FEAFEEBFFF7
:104F440054807003024FD3900765E0F912105F8A12
:104F5400088B09EA4509607078018A828B83E02412
:104F640050603D14600624E1604F8052A3A3A3A3C4
:104F7400E0704E8A828B83A3A3A3A3A3A3A31219D5
:104F8400798A828B83A3A3A3A3A3124C108A828B56
:104F940083A3A312507212115B740212170E8021A4
:104FA400A3A3A3A3E0641E701879008A828B83A351
:104FB400A31250721211558008121167E9F8E860C3
:104FC40007AA08AB0912104DEEFAEF64808065EE73
:104FD400540260237C007D007A007B00121185E975
:104FE40060117A017B00900765E0F9121077EE6496
:104FF40002803F7A028046EEA2E0503F12504612F1
:1050040050721211DFE9602F125447601F12480ECC
:1050140088088909E8450960137C00790112504623
:1050240012507285088285098312174D1211E5EE1C
:105034006401FAEFFB80087A0180027A007B0002A7
:105044004429900819E0F8A3124826A3227F0202FB
:105054001821C082C083900765E0F98A828B83A3FC
:10506400125072120819803B850882850983E0FA80
:10507400A3E0FB22C082C08374FF1216F81211A3AE
:10508400E9C394028518828519834004740280025E
:10509400740AF0AC82AD837A01790512069F74011B
:1050A40012170ED083D08202012274F212174F74A9
:1050B400E81216F8EAFEEBFF890A8C088D097C18C1
:1050C4007D007900851882851983AA82AB8312102A
:1050D40035851882851983EEF0A3EFF0900767E019
:1050E400C0E07402121743D0E0F0900768E0C0E01B
:1050F4007403121743D0E0F0900AD6E0C0E07417AE
:10510400121743D0E0F07415121743E054FEF8A3CD
:10511400E0F9900AD5E0A2E0E433FAE84AF874151D
:10512400121743125258A2E15004D2F08002C2F086
:10513400E854FDFAA2F0E43333F8EA48F87415129F
:105144001743125258A2E35004D2F08002C2F0E88E
:1051540054F7FAA2F0E433F50C750D007403780CDF
:105164001216E5125251121743125258A2E4500477
:10517400D2F08002C2F0E854EFFAA2F0E433F50C66
:105184007404780C1216E512525112174312525835
:10519400A2E55004D2F08002C2F0E854DFFAA2F093
:1051A400E433F50C7405780C1216E51252511217FB
:1051B40043125258A2E25004D2F08002C2F0E854E2
:1051C400FBFAA2F0E433F50C7402780C1216E51223
:1051D4005251121743E8F0A3E9F0900768E0601D0C
:1051E400750C10780C1219627C697D07740612170D
:1051F40043AA82AB8312101D740212170E90077912
:10520400E06011E50A60097415121743E04402F0E6
:105214007801800278007414121743E048F0900774
:1052240066E060047804800278007414121743E086
:1052340048F0AC08AD09851882851983AA82AB832E
:105244001205B5741812170E7F06021821EA450CD0
:10525400F8741522E8F0A3E9F0900AD5E02274F37B
:1052640012174F74E51216F8EAFEEBFF8C098D0A4B
:105274007428121743E0F50C75F006E9A4F87408D5
:10528400650A700474228002742128F50B7C1B7D4E
:10529400007900851882851983AA82AB83121035A0
:1052A400851882851983AC82AD837A1BA90B1213EE
:1052B4001DE97032741A121743E024F9C3940A509A
:1052C40025E50CF50B780B1219667401121743AC23
:1052D40082AD83E509A2E0E433F9EEFAEFFB1205AF
:1052E400C7740112170E741B024F2374F712174F61
:1052F400120891750800E50875F00EA4F8A9F07479
:105304008128FE740739FF7C0679FFEEFAEFFB1261
:10531400109BE97009EEFAEFFB7900120897050873
:10532400E508C3940A40CF024DC574F612174F74B2
:10533400FD1216F8EAFEEBFF90081B12544A70396E
:1053440075081D750908780812196275080275092F
:1053540000780812196275086A750990780812199C
:10536400627CFF7DFF7A017B001206E1740612174E
:105374000E90081BEAF0A3EBF090081B12544A703D
:1053840003025431E4F508F509780812196274042B
:1053940012174385820885830978081219627404F8
:1053A40012174385820885830978081219629008C8
:1053B4001D121979790290081B12543F12080774C0
:1053C4000812170EE97034851882851983E0FA747F
:1053D40001121743E0F9EA2400F508E439F509EA73
:1053E40045096017780812196290081B125049A3E6
:1053F40012543F12115B740212170EE4F508F509FA
:10540400780812196290081D1219797CFF7DFF90AB
:10541400081B1250721206ED740412170E90081B2A
:10542400EAF0A3EBF090081B12544A70047901804F
:10543400027900740312170E025051124C10EEFA46
:10544400EFFB2290077FE0F8A3E0F9E84922C0824D
:10545400C08390081912544A6010900819125072AF
:1054640012104D900819E4F0A3F0900AD7740AF0D2
:105474000250A7C082C0839061907404F0A3744862
:10548400F0A3E4F09061807440F09061BC7407F084
:105494009061877469F09061B67416F07900120B0C
:1054A400017902120B07902478E493F46006E493E4
:1054B400F9120ADD7905120E01025872C082C08306
:1054C400E9540FF9906185E0696012E5C65480449F
:1054D40049F5C6E59E547F644970F8E9F053C680E7
:1054E400E59E547F70FA02587274F712174FE5A8BC
:1054F400FE53A87E120AE9C2BA539AFEC289759B6A
:1055040000C2C2120AEF75A91175B905120AF5D2C3
:10551400BA439A0174805E42A8025E09C082C083C5
:10552400906181E4F0A302586F75E90075910075EC
:10553400BF00020122C082C083906181E4F0A374A1
:10554400C0F0A3E4025871C082C08374F81216F844
:105554009003A41267A2700302562A9003A4E05495
:105564004060237908851882851983AA82AB831247
:105574000BFD851882851983AA82AB831208B59026
:1055840003A4E054BFF0E054806010790C7A657B8A
:1055940005120BFD9003A4E0547FF0E0A2E0500F4D
:1055A4007900120B011208BB9003A4E054FEF0E052
:1055B4005402600F7901120B011208BB9003A4E09E
:1055C40054FDF0E05404600F7900120B071208C177
:1055D4009003A4E054FBF0E05408600F7901120B2F
:1055E400071208C19003A4E054F7F0E05410600FD0
:1055F4007902120B071208C19003A4E054EFF0E003
:105604005420600F7903120B071208C19003A4E021
:1056140054DFF0A3E05401600D120B131208C7907D
:1056240003A5E054FEF0740812170E025872C082EB
:10563400C083E9600514602A804F90619A7433F046
:10564400A37455F09061A0743AF090053FE06401B2
:105654007009C2919003A67467802D9003A67461AB
:10566400802690619A743FF0A3745AF09061A074FC
:105674007FF090053FE064017009D2919003A67415
:105684007180059003A6746AF0025872C082C083C8
:10569400E9600B14600D14601714600C80209024D2
:1056A4007C801590247D801090053FE06401700596
:1056B40090247E800390247FE493906186F00258C6
:1056C4007274EE12174F74F41216F8851882851945
:1056D40083AC82AD8375839075820F740412160BAC
:1056E40090247C93F460030257EF907808E0C3940D
:1056F4000250030257CF7404121743AC82AD837572
:10570400838F7582A9740812160BFC7EFF7FFF8EAF
:105714000C7D008C8285820E800F74086D606D7420
:10572400096D6068740A6D60638D08750900740200
:1057340078081216E51257F91215C8A909E50AC91D
:10574400F8881074187808121509E5104508FAE964
:10575400FBE50EC333F8E433F97404121743E5820E
:1057640028F582E58339125CF9C3E89AE99B40087D
:10577400E8C39AF8E99B8006EAC398F8EB99F9C361
:10578400E89EE99F5006E8FEE9FF8D0C0DEDC394F9
:1057940013408774FF6E700374FF6F6024850C08D8
:1057A400740278081216E51257F91215C885188282
:1057B400851983E582250EF582E583126198E50853
:1057C400F00CECC39404500302570F7508017509DB
:1057D4000078081219627402121743AC82AD837AFE
:1057E4001F7B09121227740212170E740C12170E63
:1057F4007F0A02182174482508F58274783509F562
:1058040083780822C082C083906186E0F890247F68
:10581400E49368700990247EE493906186F090612B
:10582400AE7468F0A3746AF090624574FBF0A3044C
:10583400F053F4FD43FE0290053F7401F09061A023
:10584400E0643A7004790080027901120B01025875
:1058540072C082C0839004F1E06401700A9004F67F
:10586400E06004790C800279008003F0A3F0D08317
:10587400D082020122C082C08375E1F19004F4E079
:10588400604D146009146051146049147050120B77
:10589400259004EAE0F97AEB7B04120D83909013CF
:1058A4001215E6120DB99090031215E6120D8F90A1
:1058B40004F5E0F9120D9B7901120DF512599524A6
:1058C40016126195743DF0A3740BF07900809F1259
:1058D4000B2B80BD120B3180B8120B3780B37912B9
:1058E40080EB74F412174F75D90D9004D5E0A2E043
:1058F400E4331313F812598B484401F5D978001294
:1059040059F840FB7800880874D61266F8740412BB
:105914005A0240F275E1959004D5E0F97AD67B04F9
:10592400120D89900A0774B3F0A3740A125A08126C
:105934005A4C125A43125B609004F4E064019004E0
:10594400E8700B12599E1215C890902380091259C1
:105954009E1215C8909053780812155490900778A9
:10596400081215A2125995240E1261957808121581
:10597400D712599524141261957413F09003A274EC
:1059840002F07F040218219004EAE0C4333354C0C7
:10599400229004E8E0F8A3E0C822126630780822D6
:1059A40074F612174F125B318AD978001259F840F5
:1059B400FB78008006125AA9125BE6E8C39940F509
:1059C400125B231259F840FB780080081266F474C5
:1059D40005125BE6E8C39940F375E195900A0774F4
:1059E400BFF0A3740A125A08125A127412F09003E8
:1059F400A2025DCD880874EB2508F5827404125D5B
:105A040063940622125B4974B9F0A3740A22125AF1
:105A14004C125A43125B649004E8E0F8A3E0C824F3
:105A24000E125A3B74FF12646D9004E8E0F8A3E090
:105A3400C82414125A3B22F582E83400F58322F07C
:105A4400A374D1F0A3740A22125A5022125A542277
:105A5400F0A37469F0A3740C2274F612174F125A4F
:105A64009E12598B4402F5D978001259F840FB78FC
:105A7400008006125AA9125BE6E8C39940F575E165
:105A840095900A07125AB4F0A3125AB4125A157414
:105A940014F09003A27404025DCF9004FAE0F97448
:105AA4000729F5D922880874FB2508F58274042295
:105AB40074CB125AC1125AC1F0A3740A22F0A3740F
:105AC4000AF0A374CB2274F612174F125B317406DA
:105AD4004AF5D978001259F840FB78008006125A2A
:105AE400A9125BE6E8C39940F5125B231259F8400A
:105AF400FB780080081266F47405125BE6E8C3992B
:105B040040F375E195900A0774C5F0A3740A125B1B
:105B14003F125A127415F09003A27403025DCF90E1
:105B2400051A125AA174044AF5D9780022125A9E11
:105B34009004EAE0C4333354C0FA22125B49746916
